:100000000C94F4000C941C010C941C010C941C0125
:100010000C941C010C941C010C941C010C941C01EC
:100020000C941C010C941C010C942B0A0C94050BD1
:100030000C941C010C941C010C941C010C941C01CC
:100040000C941C010C941C010C941C010C941C01BC
:100050000C941C010C941C010C941C010C94840F36
:100060000C941C010C9485060C945F060C941C01E6
:100070000C941C010C941C010C941C010C941C018C
:100080000C941C010C941C010C941C010C941C017C
:100090000C941C010C941C010C941C010C941C016C
:1000A0000C941C010C941C010C941C017A15EF1586
:1000B000B915A11587138713741587137415871342
:1000C000741574157415871374157415C40EC70E42
:1000D000B60EBA0EC00EE80EE80EE80ECB0ECF0E2E
:1000E000D30ED90EDD0EE80EE30E00000000230053
:1000F000260029002C002F000000000200090F003C
:1001000000030401000C00000000000000000000DB
:10011000000000000000080B0002020201000904B8
:100120000000010202000005240010010524010165
:1001300001042402060524060001070581031000BE
:100140004009040100020A00000007050202400005
:1001500000070583024000000403090412010002A5
:10016000EF020140D80429ED000101020301527998
:100170006D65204D75736963005069616E6F206411
:100180006520566F79616765000000000025002832
:10019000002B002E00310000000000240027002A60
:1001A000002D0030000404040404030405020202CC
:1001B0000204030202020206060606060604040200
:1001C0000202040404080201104080401020408014
:1001D000408008020401804020100201108010209D
:1001E000404020000D17CE0F11241FBECFEFDAE0E4
:1001F000DEBFCDBF25E0ACE3B2E001C01D92A03D63
:10020000B207E1F712E0A0E0B1E0E6E9FAE302C0EC
:1002100005900D92AC33B107D9F710E0C3EFD0E0F1
:1002200004C02197FE010E942C1BC23FD107C9F7D1
:100230000E94D40F0C943E1D0C9400002FB7F8942C
:1002400087708093E9009091E800892F807295FF74
:1002500004C09091F20080E4891B2FBF0895CF92D3
:10026000DF92EF92FF920F931F93CF93DF936C0176
:100270007A018B01C0E0D0E0CE15DF0589F0D8010E
:100280006D918D01D601ED91FC910190F081E02DF1
:10029000C6010995892B11F47E0102C02196ECCF8D
:1002A000C701DF91CF911F910F91FF90EF90DF90E9
:1002B000CF900895FC01538D448D252F30E0842F7D
:1002C00090E0821B930B541710F0CF96089501977E
:1002D0000895FC01918D828D981761F0828DDF0168
:1002E000A80FB11D5D968C91928D9F5F9F73928F29
:1002F00090E008958FEF9FEF0895FC01918D828D1E
:10030000981731F0828DE80FF11D858D90E00895EA
:100310008FEF9FEF0895FC01918D228D892F90E042
:10032000805C9F4F821B91098F739927089589E6FE
:1003300094E00E948B0121E0892B09F420E0822FB8
:100340000895FC01848DDF01A80FB11DA35ABF4F92
:100350002C91848D90E001968F739927848FA689C4
:10036000B7892C93A089B1898C9180648C93938DEB
:10037000848D981306C00288F389E02D80818F7DDB
:1003800080830895EF92FF920F931F93CF93DF9393
:10039000EC0181E0888F9B8D8C8D981305C0E889D6
:1003A000F989808185FD24C0F62E0B8D10E00F5F4A
:1003B0001F4F0F731127E02E8C8DE8120CC00FB663
:1003C00007FCFACFE889F989808185FFF5CFCE0156
:1003D0000E94A101F1CF8B8DFE01E80FF11DE35AC0
:1003E000FF4FF0820B8FEA89FB898081806207C012
:1003F000EE89FF896083E889F98980818064808340
:1004000081E090E0DF91CF911F910F91FF90EF90ED
:100410000895CF93DF93EC01888D8823C9F0EA8992
:10042000FB89808185FD05C0A889B9898C9186FDED
:100430000FC00FB607FCF5CF808185FFF2CFA889EA
:10044000B9898C9185FFEDCFCE010E94A101E7CF44
:10045000DF91CF91089580E090E0892B29F00E94F0
:10046000970181110C9400000895CF93DF931F92A0
:10047000CDB7DEB76983DC01ED91FC910280F38199
:10048000E02D41E050E0BE016F5F7F4F09950F9076
:10049000DF91CF91089583E00E941E0190E00895BE
:1004A000089580E090E0089580E090E0089580E075
:1004B0000895FC0182818F5BFB01808381E00895B8
:1004C00063307105C0F0FC0121812435A1F4409115
:1004D000ED025091EE026091EF027091F0024093B4
:1004E0003C0250933D0260933E0270933F02828132
:1004F0008F5F8093CB02089583E00C94210A8DE4F2
:1005000099E4A4E4B9E4FB0180839183A283B383DB
:1005100084E00895CF92DF92EF92FF920F931F93A2
:10052000CF93DF93CDB7DEB7C456D1090FB6F89499
:10053000DEBF0FBECDBF6C01DB019C919E5F9C9323
:10054000FE01319684E6DF011D928A95E9F788E085
:1005500089838BE08A8322E02C8391E09D839E83B4
:1005600039E0398774E07A879E879F873A8B44E227
:100570004B8B9C8B00E011E01E8B0D8B89E0E82EED
:10058000F12CF88EEF8A998F3B8F7C8F2F8F98A359
:1005900053E059A387E08CA34DA39EA318A70FA3F4
:1005A00001E410E01AA709A786E08BA74CA72DA7A6
:1005B0009EA79FA789AB4AAB2BAB2CAB2DAB3FAB18
:1005C00048AF59AF9AAF5BAF9CAF2DAF9EAF2196AE
:1005D0003FAF219722964FAF229723965FAF239785
:1005E00024962FAF249725967FAF259726969FAF09
:1005F000269727969FAF279728969FAF28972A96EA
:100600003FAF2A9745E02B964FAF2B972D962FAFF4
:100610002D9760E470E02F967FAF6EAF2F976396B3
:100620004FAF639785E264968FAF649765969FAFEF
:10063000659766969FAF669767969FAF6797689630
:100640003FAF689769964FAF69976B962FAF6B97DF
:100650006D967FAF6EAF6D97A1964FAFA197A296A3
:100660008FAFA297A3969FAFA397A4969FAFA4978F
:10067000A5965FAFA597D60112969C9112979B8382
:100680009B879F5F9A8F9D8F13968C912C968FAF2F
:100690002C978F5F80686A968FAF6A9744E650E028
:1006A000BF0180E00E94AC0ACC59DF4F0FB6F8942E
:1006B000DEBF0FBECDBFDF91CF911F910F91FF9095
:1006C000EF90DF90CF9008951F93CF93DF93C82FC3
:1006D000162F8EE591E00E94310E6C2F70E080E0C5
:1006E00090E04AE00E94C90D85E891E00E94310E39
:1006F000612F70E080E090E04AE00E94C90D0E9406
:100700006D0DD0E0CE010E949E19811731F0612F4E
:10071000CE010E94A61981E001C080E0DF91CF9157
:100720001F9108950F931F93CF93DF93CDB7DEB73B
:1007300027970FB6F894DEBF0FBECDBF182F062F38
:100740008091CA028823A1F16AE372E0CE0101968A
:100750004F830E94E609CE0101960E948C0D89818B
:100760009A810E94C71B1A8219821C821B821E82D8
:100770001D8261EC75E0CE0101960E94BC096DE618
:1007800071E0CE0101960E94880962E771E00E9443
:100790008809602F0E943A09BC0181EC95E00E9413
:1007A000BC0989819A810E94C71B0E94710D4F81EB
:1007B0008091CA02882349F0712F706868E0802F09
:1007C000942F0E94520D0E944D0D27960FB6F8945B
:1007D000DEBF0FBECDBFDF91CF911F910F91089566
:1007E0002F923F924F925F926F927F928F929F9241
:1007F000AF92BF92CF92DF92EF92FF920F931F932F
:10080000CF93DF93CDB7DEB72C970FB6F894DEBF4A
:100810000FBECDBF8C87262E4F83862F6CE00E94A3
:10082000FE1A892F8D7F813021F0963011F08830AB
:1008300089F42F81622F70E080E090E00E9481189F
:1008400026E636E646E65FE30E94E0180E94CA1AF2
:10085000362E01C03F8000E412E0832C912CA12CA5
:10086000B12CD80114964D905D906D907C901797A7
:1008700018968D919D910D90BC91A02D8887998798
:10088000AA87BB87C501B4010E9481186B017C0156
:100890009B01AC01F80160817181828193810E948A
:1008A000F91A87FD10C0A7019601C301B2010E9489
:1008B000E018288539854A855B850E94EC190E94DD
:1008C000CA1A362E06C0045F1F4FF2E0083B1F070E
:1008D00041F68091CA028823E1F16AE372E0CE0119
:1008E00001960E94E609CE0101960E948C0D898135
:1008F0009A810E94C71B1A8219821C821B821E8247
:100900001D8261EC75E0CE0101960E94BC096AE788
:1009100071E0CE0101960E948809622D0E943A0979
:100920006EE771E00E9488096F810E943A0967E8CA
:1009300071E00E948809632D0E943A09BC0181EC94
:1009400095E00E94BC0989819A810E94C71B0E9480
:10095000710D8091CA02882341F07C85706969E03D
:10096000C1010E94520D0E944D0D2C960FB6F894B5
:10097000DEBF0FBECDBFDF91CF911F910F91FF90D2
:10098000EF90DF90CF90BF90AF909F908F907F902F
:100990006F905F904F903F902F9008954091050485
:1009A0005091060420910304309104044217530728
:1009B000B4F49091E8009570E1F39091E80092FD15
:1009C00019C08093F100809105049091060401966E
:1009D0008F739927892B19F48EEF8093E80080910B
:1009E00005049091060401969093060480930504F3
:1009F00081E0089580E008957F928F929F92AF9258
:100A0000BF92CF92DF92EF92FF920F931F93CF93FB
:100A1000DF93C82E8B017A018091C902811103C036
:100A20008FEF9FEF75C08091C70280FF05C0809156
:100A3000E00082608093E000CE2DDF2DD12C8AEF84
:100A4000882E8C2D8770B82E8C2D8072A82E8C2D20
:100A50008074982E9AE3792E209709F452C08C2D39
:100A60000E941E01282F81110AC08A948820C1F299
:100A700061E070E080E090E00E944A0FEDCF90E0EE
:100A8000C817D9070CF42C2F3FB7F894B092E9009F
:100A90008091E80085FF33C0822F90E0C81BD90BFE
:100AA000AA2029F02150A8F01092F100FBCFF80104
:100AB000C7FE07C0215058F044914093F100319691
:100AC000F9CF215020F041914093F100FACF080F67
:100AD000191FDD2019F07092E8000AC08091E8002B
:100AE00085FD08C07092E800DD24D394209739F08A
:100AF000D12C05C0209719F491107092E8003FBFE7
:100B0000ABCFD110ACCF5D9884E680930804C701C9
:100B1000DF91CF911F910F91FF90EF90DF90CF90D9
:100B2000BF90AF909F908F907F900895CF93DF9369
:100B3000EC0180910701882331F083E00E94FC04DE
:100B40001816190634F081E090E09B838A8380E0D8
:100B500090E0DF91CF9108959091C902992311F00F
:100B600057FF03C08FEF9FEF08952FB7F89487705A
:100B70008093E9008091F20090E0841795070CF4CF
:100B8000AC01842FFB0194E6815038F028989093B3
:100B900007043091F1003193F7CF4115510521F051
:100BA0008091F200882319F02FBFCA0108958BE6C7
:100BB0008093E800F9CFCF93DF931F92CDB7DEB7D4
:100BC000FC018485958597FD05C02FEF3FEF3587A4
:100BD00024870FC041E050E0BE016F5F7F4F82E08D
:100BE0000E94AC05019719F4898190E002C08FEF53
:100BF0009FEF0F90DF91CF9108950F931F93CF93A5
:100C0000DF931F92CDB7DEB78C01FC0184859585FB
:100C100097FF12C041E050E0BE016F5F7F4F82E05E
:100C20000E94AC05019719F4298130E002C02FEF32
:100C30003FEFF80135872487F801848595850F906B
:100C4000DF91CF911F910F9108959FB7F89487700E
:100C50008093E9008091F2009FBF0895FC01848594
:100C6000958597FD06C082E00E94250690E00196DA
:100C7000089582E00E94250690E00895615030F0CA
:100C80002091F100FC0120830196F8CF289884E69A
:100C90008093070408958091BE0281110DC082E007
:100CA0008093BA0284E08093BB021092BD0210923E
:100CB000BC0281E08093BE028AEB92E008951F920D
:100CC0000F920FB60F9211242F933F934F935F9380
:100CD0006F937F938F939F93AF93BF93EF93FF9304
:100CE00089E694E00E94A101FF91EF91BF91AF913D
:100CF0009F918F917F916F915F914F913F912F9134
:100D00000F900FBE0F901F9018951F920F920FB665
:100D10000F9211242F938F939F93EF93FF93E09162
:100D20007904F0917A048081E0917F04F09180044D
:100D300082FD12C09081809182048F5F8F73209119
:100D40008304821751F0E0918204F0E0E759FB4FF1
:100D5000958F8093820401C08081FF91EF919F91D4
:100D60008F912F910F900FBE0F901F9018956D3F90
:100D700071053CF46A3F710554F4683F710589F4CC
:100D800006C09B012E5F31092230310550F4DC0191
:100D90008D919C91DC01ED91FC910190F081E02D11
:100DA0000994089587FF0DC09CE0980F923048F099
:100DB000982F9B7F993F29F0803F08F4807F90E037
:100DC000089580E090E008959C018F7C8038910523
:100DD00061F0203D310549F081E0203E310539F0D8
:100DE000203C310521F080E0089581E008950895C8
:100DF000CF93C82F8091CA02882379F080E991E0CF
:100E00000E94310E8C2F90E0A0E0B0E04AE0BC01DF
:100E1000CD010E94C90D0E946D0D8091CA028823E8
:100E200079F0CC2319F09091B90202C09091B802E8
:100E30006BE070EB80E40E94520DCF910C944D0D4D
:100E4000CF9108952F923F924F925F926F927F922F
:100E50008F929F92AF92BF92CF92DF92EF92FF92CA
:100E60000F931F93CF93DF9300D000D0CDB7DEB7A1
:100E700003961C0100E412E0F1013397608170E0F9
:100E800080E090E00E947F182B013C01F101329735
:100E9000608170E080E090E00E947F186B017C012F
:100EA000F1013197608170E080E090E00E947F184E
:100EB0004B015C01F101608170E080E090E00E94F4
:100EC0007F18A70196010E94EB1969837A838B83AF
:100ED0009C83A3019201C501B4010E94EB199B01FF
:100EE000AC0169817A818B819C810E94581AF8013A
:100EF00080829182A282B382648375838683978382
:100F0000A30192010E94E0189B01AC01C701B60148
:100F10000E94EB19F8016087718782879387F2E05E
:100F20002F0E311C045F1F4F82E0083B180709F0A9
:100F3000A3CF0F900F900F900F90DF91CF911F9143
:100F40000F91FF90EF90DF90CF90BF90AF909F9068
:100F50008F907F906F905F904F903F902F9008956B
:100F600080FF06C08FE78093B9021092B80205C0D7
:100F70001092B9028FE78093B8028091B90290E095
:100F800085569E4F0C94330E9F92AF92BF92CF9294
:100F9000DF92EF92FF920F931F93CF93DF93CDB722
:100FA000DEB764970FB6F894DEBF0FBECDBF809159
:100FB000CD02803209F0ADC00091D1028091D00203
:100FC0008231B1F51091D202002331F0013009F0E5
:100FD000A0C000E010E008C0612F80E00E94640320
:100FE000812F0E94B00795C0C80184539D4F6C01AA
:100FF000FC01E6806E2D81E0800F0E946403F60103
:10100000F7806F2D82E0800F0E946403E1E0F0E042
:10101000EC0FFD1FE00FF11FE082F1820E5F1F4F0A
:101020000431110509F7CE0101960E94220771C013
:10103000813109F06EC086EA91E00E94310E802F66
:1010400090E0A0E0B0E04AE0BC01CD010E94C90DF3
:101050000E946D0D64E070EF80E290E10E94520DFD
:101060000E944D0D64E072E482E1902F0E94520DC7
:101070000E944D0D013009F462C008F45EC00E37C5
:1010800009F047C06FE07DE680E090E00E94520DDD
:101090000E944D0D6FE071E380E090E00E94520DE0
:1010A0000E944D0D6FE072E380E090E00E94520DCF
:1010B0000E944D0D6FE070E380E090E00E94520DC1
:1010C0000E944D0D67E070E380E097EF0E94520DA3
:1010D0000E944D0D1EC0C8010E949E19A82E0C151D
:1010E0001D05B9F597E0992E27EFB22E83EB91E01D
:1010F0000E94310E0E946D0D692D7A2D80E09B2D8E
:101100000E94520D0E944D0D0F5F1F4F0E151F05BF
:1011100014F31092EC0264960FB6F894DEBF0FBE83
:10112000CDBFDF91CF911F910F91FF90EF90DF9096
:10113000CF90BF90AF909F90089581E001C084E16F
:1011400010E07801E80EF11C6701F1E0CF1AD10838
:10115000DDCF8FE0982EB12C8DEB91E00E94310E07
:101160008A2D90E0A0E0B0E04AE0BC01CD010E94F1
:10117000C90DC0CFDC01ED91FC910190F081E02D13
:10118000099408950E94291D0F931F93CF93DF9315
:10119000EC0188819981009729F02A813B812617EB
:1011A000370788F48B016F5F7F4F0E945F1C0097A9
:1011B00061F0998388831B830A832C813D81232BD3
:1011C00011F4FC01108281E001C080E0DF91CF9139
:1011D0001F910F910895CF93DF93EC01888199813E
:1011E000009711F00E94C71B198218821D821C8271
:1011F0001B821A82DF91CF910895CF92DF92EF92F6
:10120000FF920F931F93CF93DF931F92CDB7DEB75B
:10121000182F062FE42E862F880F8E5F99830E9449
:10122000CE0483E00E94CE04F12EC12E9981D92EE6
:101230008C2D8F19801798F4F601E7FE02C0849177
:1012400001C080810E94CE04182F80E00E94CE044D
:101250008123FFEFCF1ADF0A8111EACF01C081E0BD
:101260000F90DF91CF911F910F91FF90EF90DF9042
:10127000CF900895CF92DF92EF92FF920F931F933A
:10128000CF93DF9300D000D0CDB7DEB78C01862F8F
:101290004AE09E012F5F3F4F6901B90190E00E9433
:1012A0004A18F60101900020E9F73197EC19FD0981
:1012B000D8011496ED90FC9015973097D9F0EE0E6A
:1012C000FF1EB701C8010E94C408882381F0F801FD
:1012D0002081318184819581B601820F931F0E9404
:1012E000371DD8011596FC92EE92149703C0C801E1
:1012F0000E94EB08C8010F900F900F900F90DF91A4
:10130000CF911F910F91FF90EF90DF90CF900895B4
:10131000EF92FF920F931F93CF93DF93EC017B012A
:1013200061157105F1F0FB0101900020E9F731979B
:10133000E61BF70B0C811D813097B1F00E0F1F1FBC
:10134000B8010E94C408882361F0288139818C810A
:101350009D81B701820F931F0E94371D1D830C834F
:1013600003C0CE010E94EB08CE01DF91CF911F9107
:101370000F91FF90EF900895EF92FF920F931F93BC
:10138000CF93DF93EC01FB0186179707B9F000813B
:1013900011810115110539F0E480F580B7010E9433
:1013A000C408811104C0CE010E94EB0807C0FD8271
:1013B000EC82B801888199810E94371DCE01DF91AE
:1013C000CF911F910F91FF90EF900895EF92FF92B0
:1013D0000F931F93CF93DF93EC01198218821B8226
:1013E0001A821D821C826115710521F18B01FB019E
:1013F00001900020E9F731977F01E61AF70AB7015B
:101400000E94C408811109C0CE01DF91CF911F91C4
:101410000F91FF90EF900C94EB08FD82EC82B801E5
:1014200088819981DF91CF911F910F91FF90EF906B
:101430000C94371DDF91CF911F910F91FF90EF908A
:1014400008958093E9008091F200882319F08AE3DF
:101450008093E80008951F920F920FB60F92112407
:101460002F933F934F935F936F937F938F939F93AC
:10147000AF93BF93CF93EF93FF93C091E10080911F
:10148000E100837F8093E100C3FF0FC01092E90069
:1014900081E08093EB001092EC0082E38093ED00FA
:1014A0001092C90288E08093F000C2FF19C083E067
:1014B0000E94210A80910804882339F08091080451
:1014C000815080930804882389F180910704882340
:1014D00039F080910704815080930704882341F1FB
:1014E000C4FF10C08091E2008E7E81608093E20094
:1014F0008091E1008F7E8093E1008091C7028E7E13
:10150000806111C0C0FF16C08091E2008E7E8061B4
:101510008093E2008091E1008E7E8093E1008091D3
:10152000C7028E7E81608093C70204C05D9ACDCFD2
:10153000289AD6CFFF91EF91CF91BF91AF919F9114
:101540008F917F916F915F914F913F912F910F906C
:101550000FBE0F901F901895DF92EF92FF920F939E
:101560001F93CF93DF93D82E8A017B01E40EF51EE3
:10157000EB01CE15DF0571F0D7FE03C0FE018491AB
:1015800001C088810E94CE0421968111F2CF8FEF95
:101590009FEF01C0C801DF91CF911F910F91FF9084
:1015A000EF90DF9008950F931F93CF93DF931F92D7
:1015B000CDB7DEB782E0898342E450E066E171E0B6
:1015C00080E80E94AC0A0E944B06DC0112960D9145
:1015D0001C9113970115110569F0D801ED91FC914B
:1015E0000280F381E02DBE016F5F7F4FC801099536
:1015F00097FF07C089810F90DF91CF911F910F91C5
:101600000895F80100851185E5CF1F920F920FB65E
:101610000F921124CF92DF92EF92FF920F931F93BC
:101620002F933F934F935F936F937F938F939F93EA
:10163000AF93BF93EF93FF93CF93DF93CDB7DEB715
:101640006C97DEBFCDBF1092E9008091E80083FF68
:10165000EDC168E0CE0145960E943E0682EF809380
:10166000E8008D8987FF05C09091E80090FFFCCFCE
:1016700003C09EEF9093E800982F907609F0C6C0C3
:101680009E892F89188D91110CC0803829F4809182
:10169000C8028093F10002C01092F1001092F10094
:1016A00048C1422F50E0512B913051F4811141C17A
:1016B0004130510509F03DC18091C8028D7F0BC0BA
:1016C000933061F4811135C14130510509F031C1C8
:1016D0008091C80282608093C8022BC1953041F48A
:1016E0008091E80080FFFCCF20682093E30021C1B7
:1016F000963009F05FC0EB8CFC8C1092E9001092E0
:10170000060410920504123091F510920404109210
:1017100003040E94D30A99E0BE016F5F7F4FDB0193
:10172000E92F1D92EA95E9F799831A8391E09E8348
:1017300090EA988792E399872091050430910604F6
:10174000275F3F4F3C832B838D831092E9001092DB
:10175000060410920504F0920404E092030449E0A8
:1017600050E080E00E94AC0A0E94D30AE2C0F092EE
:101770000404E09203040E944B06DC011296ED90F3
:10178000FC901397E114F10409F4C0C0D701ED9166
:10179000FC910480F581E02DBE016B5E7F4FC70197
:1017A0000995009719F00CF0C4C0C7C0F701E08498
:1017B000F184E8CF973009F4C0C0983021F481E07B
:1017C0008093F100B6C0993009F0B3C0837009F07E
:1017D000B4C0EDE0F1E081E021E036E390819923AF
:1017E00061F08093E9002093EB0091919093EC00DD
:1017F0003093ED008F5F873089F78EE78093EA00A2
:101800001092EA008F898093C90293C08B8D9C8DC2
:101810001092E900109206041092050490930404BB
:1018200080930304898D811156C08E899D89913AD8
:1018300059F4813209F081C047E050E060E071E086
:1018400080E00E94AC0A75C0913209F076C0833204
:1018500089F4888D90E0982F88272F89822BA0E02B
:10186000B0E08093080190930901A0930A01B0931E
:101870000B015FC0803269F48091E80082FFFCCFE9
:1018800067E080E091E00E943E068BEF8093E800E5
:1018900006C0823209F04DC08F8980930701809184
:1018A000C602882319F0EEEFFAE002C0E0E0F8E0AB
:1018B0008091000190910101A0910201B09103017A
:1018C000803B9440A105B10509F07BC080910701E0
:1018D00080FF93C076C00E944B06DC0112960D91EA
:1018E0001C9113970115110541F1D801ED91FC915F
:1018F0000190F081E02DBE016B5E7F4FC80109951C
:10190000811117C0F80100851185ECCF113009F461
:101910004EC0133091F48F89882309F445C082307A
:1019200081F440E86FE089E791E00E94FD08882398
:1019300021F08EEF8093E80079C081E28093EB0084
:1019400075C0813029F440E86AE08EE691E0EDCF81
:10195000833099F70E944B06DC011296ED90FC90C3
:1019600013978E010F5F1F4F6801E114F10479F0A6
:10197000D701ED91FC910680F781E02DB801C701F8
:101980000995080F111DF701E084F184EECFD8010D
:101990001C92F60101900020E9F73197BF016C1904
:1019A0007D0940E0C601C1CF68E571E002C06CE589
:1019B00071E06115710509F2FB01449150E080E886
:1019C00040CF0FB6F894A89580916000886180930D
:1019D0006000109260000FBEA895EE3F2AE0F2076B
:1019E00039F08091FE0A9091FF0A91838083A1CF04
:1019F0001092FF0A1092FE0A9CCFEE3F8AE0F80791
:101A000031F0808191819093FF0A8093FE0A87E7ED
:101A100097E7918380839BE088E10FB6F894A895BF
:101A2000809360000FBE9093600083CF6C960FB6DA
:101A3000F894DEBF0FBECDBFDF91CF91FF91EF9144
:101A4000BF91AF919F918F917F916F915F914F91D6
:101A50003F912F911F910F91FF90EF90DF90CF90CA
:101A60000F900FBE0F901F901895BC01009791F03A
:101A7000FC0101900020E9F73197AF01481B590B99
:101A8000E0910D04F0910E040280F381E02D8DE0D1
:101A900094E0099480E090E00895809160048F5F65
:101AA0000C94210ACF93DF9300D000D0CDB7DEB7DE
:101AB00069837A838B839C838091600444E050E047
:101AC000BE016F5F7F4F8F5F0E94FC040F900F90ED
:101AD0000F900F90DF91CF91089588E392E00C94DE
:101AE000350DCF93DF93A0910D04B0910E04E1EC7E
:101AF000F5E044815581608171811296ED91FC91F0
:101B000013978DE094E00995EC010E946D0D8C0F08
:101B10009D1FDF91CF910895CF93DF93EC018091CA
:101B2000C1059091C2050097C9F06881798161155E
:101B3000710591F04091C3055091C4052C813D8100
:101B40004217530748F00E94371D8C819D81909366
:101B5000C6058093C50518C00E94C71B888199815E
:101B60009093C2058093C1058A819B819093C4059F
:101B70008093C3058C819D819093C6058093C50594
:101B8000198218821B821A821D821C82DF91CF91DA
:101B900008958F929F92AF92BF920F931F93CF930E
:101BA000DF93CDB7DEB7A1970FB6F894DEBF0FBEB7
:101BB000CDBF19A2423008F44AE08E010F5D1F4FDD
:101BC000842E912CA12CB12CA50194010E940A1BFA
:101BD000E62FB901CA0101501109EA3014F4E05DA1
:101BE00001C0E95CD801EC93232B242B252B61F752
:101BF000C8010E94350DA1960FB6F894DEBF0FBE46
:101C0000CDBFDF91CF911F910F91BF90AF909F906B
:101C10008F900895CF92DF92EF92FF92CF93DF9350
:101C20006B017C01E0910D04F0910E040190F081B4
:101C3000E02D6DE28DE094E00995EC0166277727B1
:101C4000CB016C197D098E099F094AE00E94C90DDC
:101C50008C0F9D1FDF91CF91FF90EF90DF90CF9081
:101C600008950C94350DCF93DF930E94350DEC0150
:101C70000E946D0D8C0F9D1FDF91CF910895EF9203
:101C8000FF921F93CF93DF931F92CDB7DEB77C01F6
:101C9000162F2150203108F04EC080E8E816F104DC
:101CA0000CF449C0A1EEEA16F104ACF580912A05C6
:101CB00090912B05DC01ED91FC916E2D622B019032
:101CC000F081E02D4983099580912A0590912B059B
:101CD000DC01ED91FC91612F6F770190F081E02D97
:101CE0000995E894E4F84981B0ECEB16F10419F198
:101CF00080912A0590912B05DC01ED91FC91642FD8
:101D00006F770190F081E02D0F90DF91CF911F91BF
:101D1000FF90EF900994C701885F9109089758F4E4
:101D2000B7018AE295E00F90DF91CF911F91FF906C
:101D3000EF900C94B7060F90DF91CF911F91FF9019
:101D4000EF900895BC01990F880B990B97FD0C94A7
:101D50000A0E4AE00C94C90D90E0FC013197EF3077
:101D6000F105B0F5EA59FF4F0C942C1B80918000CF
:101D70008F7703C0809180008F7D809380000895CD
:101D800080918000877FF9CF84B58F7702C084B5BA
:101D90008F7D84BD0895809190008F7707C08091DA
:101DA00090008F7D03C080919000877F809390008A
:101DB00008958091C0008F7703C08091C0008F7D0F
:101DC0008093C00008958091C200877F8093C200F5
:101DD0000895CF93DF9390E0FC01EC53FE4F2491E4
:101DE000FC01EB55FE4F8491882361F190E0880F50
:101DF000991FFC01E956FE4FC591D491FC01E757AC
:101E0000FE4FA591B491611109C09FB7F8948881E4
:101E1000209582238883EC912E230BC0623061F4DD
:101E20009FB7F8943881822F809583238883EC9123
:101E30002E2B2C939FBF06C08FB7F894E8812E2BD2
:101E400028838FBFDF91CF9108953FB7F894809199
:101E5000C8059091C905A091CA05B091CB0526B5DA
:101E6000A89B05C02F3F19F00196A11DB11D3FBFD2
:101E7000BA2FA92F982F8827820F911DA11DB11D60
:101E8000BC01CD0142E0660F771F881F991F4A955C
:101E9000D1F708958F929F92AF92BF92CF92DF9227
:101EA000EF92FF926B017C010E94250F4B015C01B8
:101EB000C114D104E104F104F1F00E94250FDC010A
:101EC000CB0188199909AA09BB09883E9340A1054D
:101ED000B10570F321E0C21AD108E108F10888EEDB
:101EE000880E83E0981EA11CB11CC114D104E1042A
:101EF000F10419F7DDCFFF90EF90DF90CF90BF9006
:101F0000AF909F908F9008951F920F920FB60F92EF
:101F100011242F933F938F939F93AF93BF938091FF
:101F2000090490910A04A0910B04B0910C04309123
:101F3000C70523E0230F2D3720F40196A11DB11D05
:101F400005C026E8230F0296A11DB11D2093C705E9
:101F50008093090490930A04A0930B04B0930C049B
:101F60008091C8059091C905A091CA05B091CB0593
:101F70000196A11DB11D8093C8059093C905A0933A
:101F8000CA05B093CB05BF91AF919F918F913F91BF
:101F90002F910F900FBE0F901F9018958091C10543
:101FA0009091C2050C94C71BCF93DF93CDB7DEB7DA
:101FB00064970FB6F894DEBF0FBECDBF789484B59A
:101FC000826084BD84B5816084BD85B5826085BD35
:101FD00085B5816085BD80916E00816080936E00C3
:101FE00010928100809181008260809381008091B5
:101FF0008100816080938100809180008160809366
:102000008000809191008260809391008091910086
:102010008160809391008091900081608093900016
:102020008091C10084608093C1008091C100826072
:102030008093C1008091C10081608093C100809134
:10204000C30081608093C3008091C0008260809350
:10205000C0008091C20081608093C20080917A00AC
:10206000846080937A0080917A00826080937A0005
:1020700080917A00816080937A0080917A008068F4
:1020800080937A001092C9021092C8021092C7027F
:102090008091D70081608093D70080EA8093D80038
:1020A00089B5806189BD89B5826089BD09B400FEAA
:1020B000FDCF61E070E080E090E00E944A0F8091E7
:1020C000D8008F7C80618093D8008091E000807F71
:1020D0008093E0008091E1008E7E8093E1008DE0AE
:1020E0008093E200559A209AEEEFFFE78591949154
:1020F0008B3F9C4D19F481E08093C6021092CB0275
:1021000000E010E0B09007016AE070E080E090E04D
:102110000E944A0FB11026C0043111051CF52FB7DB
:10212000F8948091090490910A04A0910B04B09155
:102130000C042FBF8093ED029093EE02A093EF0268
:10214000B093F002AC01BD014C195D096E097F0925
:102150004536510561057105A8F20F5F1F4F6C01EF
:102160007D01D0CF109107016AE070E080E090E03F
:102170000E944A0F1123D9F181E08093CA028FEFA8
:102180009FEF90931A0480931904E0910D04F0914D
:102190000E040190F081E02D6DE48DE094E009954E
:1021A00081E090E00E94A20E84EC91E00E94310E4A
:1021B00082E090E00E94A20E84EC91E00E94310E39
:1021C00080E090E00E94A20E84EC91E00E94310E2B
:1021D00080E090E00E94A20E0E946D0D86EC91E0DE
:1021E0000E94330E89E191E00E94330E03C081E02A
:1021F0008093CA0280EF93E09093090580930805CD
:1022000082E993E0909307058093060580E692E0CB
:102210009093150580931405E0912A05F0912B0504
:10222000A089B18982E08C93A485B5851C92A6858E
:10223000B7858FE38C93108EA489B58986E08C9343
:10224000A289B3898C9180618C93A289B3898C9186
:1022500088608C93A289B3898C9180688C93028862
:10226000F389E02D80818F7D808310922C05109260
:102270002E0510922D0510923505109234051092FE
:102280003305109232058FEF9FEF909337058093BF
:10229000360590933905809338051092C005109249
:1022A0003D0510923C0510923B0510923E051092A0
:1022B0003F0510923A0562E085E10E94E90E61E077
:1022C00082E10E94E90E61E087E00E94E90E62E08F
:1022D00080E00E94E90E80E00E94B007CE010196E6
:1022E0007C0101E010E05C01C8010E949E19D82E1B
:1022F000C80101960E949E19D701DC92F501E00FFA
:10230000F11F80830E5F1F4FB2E0EB0EF11C053111
:10231000110551F7C5010E94220785E292E00E9453
:10232000330EEFEFF0E08491EBECF1E00491ECEA96
:10233000F1E01491112399F081110E94AC0EE12F6C
:10234000F0E0EE0FFF1FE757FE4FA591B4918FB756
:10235000F8949C91E02FE095E923EC938FBFB0E8CF
:102360008B2E912C10EF612E712C03E0202E312C3E
:1023700044244394512C0E94250F6093ED027093E6
:10238000EE028093EF029093F00210912C05113130
:1023900008F0BDC180912A0590912B05DC01ED91DB
:1023A000FC910084F185E02D0995892B09F4AFC1DA
:1023B00080912A0590912B05DC01ED91FC9102841E
:1023C000F385E02D09956C018B7F893F09F49FC14E
:1023D00020913405309135052115310509F0B1C042
:1023E000C0922F0500912D05802F0E94D2060E94D9
:1023F000E406882351F0C7FC08C000932F05C09263
:102400003005509235054092340500912F05802FFC
:102410000E94D206813F910509F45FC074F5803BAC
:10242000910509F461C06CF48039910509F45CC030
:10243000803A910509F458C08038910509F0DDC053
:1024400053C0803D910509F448C02CF4803C9105AF
:1024500009F443C0D2C0803E910509F445C0803FD5
:10246000910509F0CAC0909233058092320510920E
:102470002D05F0EFF09340053BC0883F9105B9F082
:1024800044F4833F910549F17CF1863F910579F051
:10249000B4C08A3F91050CF4B0C08D3F91053CF06B
:1024A0009C012E5F31092230310508F0A6C09093BF
:1024B0003D0580933C0510923B0510923E0510921D
:1024C0003F05B1E0B093C005109235051092340578
:1024D0001092330510923205F5C0E2E0F0E0F0937F
:1024E0003305E093320504C0309233052092320563
:1024F00020913405309135054091320550913305D6
:10250000415051092417350708F4D5C090933D0573
:1025100080933C05802F8F708F5F80933B05809167
:10252000300580933E0510923F05109235051092BC
:102530003405109233051092320521E02093C00536
:10254000C1C0C7FE44C0C60199278D3F910554F410
:102550008A3F91056CF4873F9105C1F0883F910552
:10256000B1F506C0AC014E5F51094230510578F516
:1025700090933D0580933C0510923E0510923F05D7
:1025800010923B0531E03093C0059CC0809140051E
:10259000803F99F5C9010196F901EA5FFA4FA7EF6B
:1025A000A2AF70923D0560923C0580933E059093EA
:1025B0003F0510923B05B1E0B093C0051092350580
:1025C00010923405109233051092320571C080913B
:1025D0002F05F901EA5FFA4F803FD1F4C2AEC090F7
:1025E0003205D0903305C60101972817390708F442
:1025F00062C000912F05003F69F4109235051092DA
:102600003405109233051092320510922D057FC0CB
:10261000C1A6E5CF802F0E94D2067C0190933D0594
:1026200080933C050E94E406882331F0802F8F7050
:102630008F5F80933B0502C010923B05809130056F
:1026400080933E05E3E0CE16D10419F48091310564
:1026500001C080E080933F0510923505109234054B
:102660001092330510923205F1E0F093C00520EB93
:10267000E216F104D1F06CF480E9E816F104A9F057
:1026800090EAE916F10489F0A0E8EA16F10481F471
:102690000CC0B0EDEB16F10441F0E0EEEE16F104E3
:1026A00021F0F0ECEF16F10419F400932D050AC0A7
:1026B00010922D0507C02F5F3F4F309335052093B3
:1026C000340525C080913C0590913D0580399105E8
:1026D00029F480913F05882309F4A5C280913C0527
:1026E00090913D059C01205831092136310508F0B3
:1026F0009FC220913B05211709F49AC2112309F4C6
:1027000097C240913A05342F317040FDB3C180919A
:10271000ED029091EE02A091EF02B091F002409193
:10272000FF03509100046091010470910204841B26
:10273000950BA60BB70B893E9340A105B10508F494
:102740003BC0EDE0F1E08491E9EDF1E01491EAEBBA
:10275000F1E00491002379F081110E94AC0EE02F8A
:10276000F0E0EE0FFF1FE651FF4FA591B4918C9161
:10277000182381E009F480E081708093F202909147
:10278000F102891749F08093F102811102C081E0C2
:1027900001C080E00E94F8068091ED029091EE0267
:1027A000A091EF02B091F0028093FF039093000498
:1027B000A0930104B09302048091F3039091F40379
:1027C000A091F503B091F6034091F7035091F803FF
:1027D0006091F9037091FA03841B950BA60BB70B5C
:1027E0008F739927AA27BB27892B8A2B8B2B09F05C
:1027F0005FC0809160040E942506882309F46CC0A4
:102800008091F3039091F403A091F503B091F60346
:102810000196A11DB11D6C017D01FFE3CF22DD24D6
:10282000EE24FF248091F7039091F803A091F9031F
:10283000B091FA03C816D906EA06FB06C9F18091E1
:1028400060040E94250644E050E0B50180916004D8
:102850000E94AC05049764F18091F3039091F40316
:10286000A091F503B091F603880F991F880F991F67
:10287000FC01ED50FD4F49815A816B817C81408381
:10288000518362837383C092F303D092F403E09286
:10289000F503F092F603D701C6010196A11DB11D03
:1028A0006C017D012FE3C222DD24EE24FF24BACF88
:1028B0008091F7039091F803A091F903B091FA0386
:1028C000880F991F880F991FFC01ED50FD4F8081E3
:1028D00031812281938104C090E020E030E080E0EB
:1028E000C090F303D090F403E090F503F090F6036A
:1028F0004091F7035091F8036091F9037091FA0346
:10290000C416D506E606F706C1F04091F7035091CC
:10291000F8036091F9037091FA034F5F5F4F6F4FB7
:102920007F4F4F735527662777274093F7035093C0
:10293000F8036093F9037093FA038093FB033093D9
:10294000FC032093FD039093FE03882309F48FC0BA
:102950008BE292E00E94310E6091FB0370E080E018
:1029600090E040E10E94C90D86E392E00E94310EA2
:102970006091FC0370E080E090E040E10E94C90DAE
:1029800086E392E00E94310E6091FD0370E080E0EA
:1029900090E040E10E94C90D86E392E00E94310E72
:1029A0006091FE0370E080E090E040E10E94C90D7C
:1029B0000E946D0D8091FB038F70853009F455C026
:1029C00000F5843009F053C0E091EC02AE2FB0E086
:1029D000A453BD4F8091FC038C93A1E0AE0FB0E0F7
:1029E000A453BD4F8091FD038C9383E08E0F8093A1
:1029F000EC02EE5FF0E0E453FD4F8091FE03808334
:102A000036C08630F1F0873091F5E091EC02AE2FC0
:102A1000B0E0A453BD4F8091FC038C93A1E0AE0FB6
:102A2000B0E0A453BD4F8091FD038C9383E08E0FE3
:102A30008093EC02EE5FF0E0E453FD4F8091FE03E3
:102A400013C0E091EC02AE2FB0E0A453BD4F8091D3
:102A5000FC038C9382E08E0F8093EC02EF5FF0E03A
:102A6000E453FD4F8091FD0380830E94C4070E94C0
:102A70002B0281CC842F8E7F09F449CE80913C05B6
:102A800090913D05BC01605871096136710508F5EA
:102A900020913B05211719F031E0111130E04695E6
:102AA00050E04230510541F04330510549F041308A
:102AB000510509F02CCE06C0332309F428CE02C0FC
:102AC000311125CE40913F0560913E050E943F0E99
:102AD0001ECEFC01E05FF109E031F10508F017CEF0
:102AE000EA5AFF4F0C942C1BBC018AE295E00E942D
:102AF000B7060DCE00913F0510E0102F0027809102
:102B00003E05082B0138110510F000E810E0C12C3B
:102B1000D12CC016D10609F4FACD80912A059091E6
:102B20002B05DC01ED91FC91D601AA5FBA4F019013
:102B3000F081E02DDA966C910995BFEFCB1ADB0A94
:102B4000E8CF10913E0580912A0590912B05DC017C
:102B5000ED91FC910190F081E02D63EF09951F77D5
:102B6000612F70E080912A0590912B050E94BA0890
:102B7000CECD00913F05B0E80B9F800111248091DC
:102B80003E05082B80912A0590912B05DC01ED91E3
:102B9000FC910190F081E02D62EF099580912A056A
:102BA00090912B05DC01ED91FC91B8016F777727AF
:102BB0000190F081E02D099580912A0590912B05D7
:102BC000DC01ED91FC91B801660F672F661F770B52
:102BD00071956F7777270190F081E02D22C0809169
:102BE0003E058770B0E18B9FC001112410913F0515
:102BF0001F70182B80912A0590912B05DC01ED9117
:102C0000FC910190F081E02D61EF099580912A05FA
:102C100090912B05DC01ED91FC910190F081E02D6C
:102C2000612F099574CD90923D0580923C0556CD5B
:102C3000813F9105C1F4E0911605F09117050CC094
:102C40008B3F91050CF0C8C0833F910509F0A5C0EA
:102C5000E0911A05F0911B05309709F452CD80914F
:102C60003E0509954ECD823F91050CF080C0803B1A
:102C70009105C1F4E0910C05F0910D0508C0803874
:102C8000910509F03ECDE0910605F09107053097DA
:102C900009F437CD40913F0560913E0580913B0599
:102CA00009952FCD813B910584F48039910529F454
:102CB000E0910805F0910905EACF803A9105F9F60F
:102CC000E0910A05F0910B05E2CF803D910529F4D2
:102CD000E0911005F09111050BC0813D91058CF438
:102CE000803C910509F00DCDE0910E05F0910F05A6
:102CF000309709F406CD60913E0580913B0509951A
:102D000000CD803E9105B9F4E0911205F0911305D4
:102D1000309709F4F6CC60913F056F7720E8629F09
:102D2000B001112480913E058F77682B70528091FD
:102D30003B050995E6CC803F910509F0E2CCE09196
:102D40001405F0911505309709F4DBCC60913F052F
:102D500070E0762F662780913E05682B61387105FB
:102D600010F060E870E080E495E00995CACC8A3FF5
:102D7000910509F065CFE0912005F091210508C08B
:102D8000883F910509F0BDCCE0911E05F0911F052B
:102D9000309709F4B6CC0995B4CC833F9105A4F4DF
:102DA000E0911805F0911905309709F4AACC8091AB
:102DB0003F058F7730E8839FC001112420913E05A5
:102DC0002F77822B09959DCC863F9105C9F6E0911E
:102DD0001C05F0911D05DCCF8C3F910529F4E09195
:102DE0002405F0912505D4CF8C3F91052CF4E0917A
:102DF0002205F0912305CCCF8E3F910529F4E09177
:102E00002605F0912705C4CF8F3F910509F079CCB5
:102E1000E0912805F0912905BBCF10926C04109227
:102E20006B0488EE93E0A0E0B0E080936D04909393
:102E30006E04A0936F04B093700422E331E03093EA
:102E40006A04209369042DEC30E0309376042093DB
:102E500075042CEC30E0309378042093770428EC50
:102E600030E030937A042093790429EC30E03093F9
:102E70007C0420937B042AEC30E030937E04209382
:102E80007D042EEC30E03093800420937F04109278
:102E9000820410928304109284041092850410928C
:102EA000100410920F048093110490931204A093C5
:102EB0001304B093140484E491E090930E0480937F
:102EC0000D048FEF9FEF90931A048093190482E012
:102ED000809361048093620487E694E09093640495
:102EE00080936304109266041092650486E591E075
:102EF00090935E0480935D0480E88093670481E88A
:102F0000809368040E944B06FC012181809161043A
:102F100090E0820F911D08970CF483C06AE372E081
:102F200081EC95E00E94E60989E694E090932B05F8
:102F300080932A0510922C0510922D0510922E05D3
:102F40001092330510923205109235051092340517
:102F50008FEF9FEF90933705809336059093390557
:102F60008093380583E080933A0510923B051092D8
:102F70003D0510923C0510923E0510923F051092BF
:102F8000C00580E8E0E4F5E0DF011D928A95E9F7ED
:102F90001092070510920605109209051092080577
:102FA00010920B0510920A0510920D0510920C0557
:102FB00010920F0510920E05109211051092100537
:102FC0001092130510921205109215051092140517
:102FD00010921705109216051092190510921805F7
:102FE00010921B0510921A0510921D0510921C05D7
:102FF00010921F0510921E051092210510922005B7
:103000001092230510922205109225051092240596
:103010001092270510922605109229051092280576
:103020000895A281B381109729F48DE594E09383EC
:1030300082830EC018968D919C911997009711F07C
:10304000DC01F8CF8DE594E019969C938E93189748
:10305000808180935F04818180936004908180915E
:103060006204890F808380E090916104891708F0E1
:1030700055CFA0916304B0916404A80FB11D9C9139
:10308000A181B0E0A45FBE4F9C9391819F5F91832B
:103090008F5FEACFBB274A3031F4992322F4BDE297
:1030A000909581959F4F0C945618BB27FB0155278F
:1030B000AA27880F991FAA1FA41710F0A41B839595
:1030C0005051B9F7A05DAA3308F0A95DA19300970C
:1030D00079F7B111B1931192CB010C946F18DC0107
:1030E000FC01672F71917723E1F7329704C07C913F
:1030F0006D9370836291AE17BF07C8F30895E8948B
:1031000009C097FB3EF490958095709561957F4F2F
:103110008F4F9F4F9923A9F0F92F96E9BB279395DD
:10312000F695879577956795B795F111F8CFFAF4ED
:10313000BB0F11F460FF1BC06F5F7F4F8F4F9F4F1E
:1031400016C0882311F096E911C0772321F09EE87C
:10315000872F762F05C0662371F096E8862F70E0E2
:1031600060E02AF09A95660F771F881FDAF7880FBC
:103170009695879597F90895990F0008550FAA0B12
:10318000E0E8FEEF16161706E807F907C0F012167A
:103190001306E407F50798F0621B730B840B950B7D
:1031A00039F40A2661F0232B242B252B21F40895D2
:1031B0000A2609F4A140A6958FEF811D811D08956F
:1031C0000E94F3180C9464190E94561938F00E945A
:1031D0005D1920F0952311F00C944D190C9453199E
:1031E00011240C9498190E94751970F3959FC1F3DE
:1031F000950F50E0551F629FF001729FBB27F00DA5
:10320000B11D639FAA27F00DB11DAA1F649F6627F9
:10321000B00DA11D661F829F2227B00DA11D621F48
:10322000739FB00DA11D621F839FA00D611D221F02
:10323000749F3327A00D611D231F849F600D211DE6
:10324000822F762F6A2F11249F5750409AF0F1F069
:1032500088234AF0EE0FFF1FBB1F661F771F881FD2
:1032600091505040A9F79E3F510580F00C944D19A4
:103270000C9498195F3FE4F3983ED4F386957795C4
:103280006795B795F795E7959F5FC1F7FE2B880F78
:10329000911D9695879597F9089597F99F6780E80E
:1032A00070E060E008959FEF80EC089500240A9498
:1032B0001616170618060906089500240A94121611
:1032C0001306140605060895092E0394000C11F444
:1032D000882352F0BB0F40F4BF2B11F460FF04C0F1
:1032E0006F5F7F4F8F4F9F4F089557FD9058440F4A
:1032F000551F59F05F3F71F04795880F97FB991F55
:1033000061F09F3F79F08795089512161306140611
:10331000551FF2CF4695F1DF08C01616170618069E
:10332000991FF1CF86957105610508940895E89479
:10333000BB2766277727CB0197F90895F999FECF28
:1033400092BD81BDF89A992780B50895262FF999E5
:10335000FECF1FBA92BD81BD20BD0FB6F894FA9A78
:10336000F99A0FBE019608952F923F924F925F9265
:103370006F927F928F929F92AF92BF92CF92DF9285
:10338000EF92FF920F931F93CF93DF93CDB7DEB7EA
:10339000CA1BDB0B0FB6F894DEBF0FBECDBF09947E
:1033A0002A88398848885F846E847D848C849B84D5
:1033B000AA84B984C884DF80EE80FD800C811B81E3
:1033C000AA81B981CE0FD11D0FB6F894DEBF0FBE12
:1033D000CDBFED0108955058BB27AA270E94031ABC
:1033E0000C9464190E94561938F00E945D1920F05F
:1033F00039F49F3F19F426F40C9453190EF4E09518
:10340000E7FB0C944D19E92F0E94751958F3BA1770
:10341000620773078407950720F079F4A6F50C94EA
:1034200097190EF4E0950B2EBA2FA02D0B01B901C0
:1034300090010C01CA01A0011124FF27591B99F02A
:10344000593F50F4503E68F11A16F040A22F232F36
:10345000342F4427585FF3CF469537952795A79586
:10346000F0405395C9F77EF41F16BA0B620B730B2D
:10347000840BBAF09150A1F0FF0FBB1F661F771F9E
:10348000881FC2F70EC0BA0F621F731F841F48F453
:10349000879577956795B795F7959E3F08F0B0CFDC
:1034A0009395880F08F09927EE0F979587950895C3
:1034B0000E946C1A0C9464190E945D1958F00E94C5
:1034C000561940F029F45F3F29F00C944D19511121
:1034D0000C9498190C9453190E94751968F3992348
:1034E000B1F3552391F3951B550BBB27AA27621700
:1034F0007307840738F09F5F5F4F220F331F441F0D
:10350000AA1FA9F335D00E2E3AF0E0E832D0915040
:103510005040E695001CCAF72BD0FE2F29D0660F2D
:10352000771F881FBB1F261737074807AB07B0E870
:1035300009F0BB0B802DBF01FF2793585F4F3AF076
:103540009E3F510578F00C944D190C9498195F3FEB
:10355000E4F3983ED4F3869577956795B795F795FC
:103560009F5FC9F7880F911D9695879597F90895E4
:10357000E1E0660F771F881FBB1F62177307840780
:10358000BA0720F0621B730B840BBA0BEE1F88F78F
:10359000E09508950E947D1988F09F5798F0B92F03
:1035A0009927B751B0F0E1F0660F771F881F991F78
:1035B0001AF0BA95C9F714C0B13091F00E9497196A
:1035C000B1E008950C949719672F782F8827B85F7A
:1035D00039F0B93FCCF3869577956795B395D9F7D0
:1035E0003EF490958095709561957F4F8F4F9F4FDA
:1035F00008950E94BC1808F48FEF0895991B79E094
:1036000004C0991F961708F0961B881F7A95C9F772
:1036100080950895A1E21A2EAA1BBB1BFD010DC0C7
:10362000AA1FBB1FEE1FFF1FA217B307E407F50772
:1036300020F0A21BB30BE40BF50B661F771F881F4E
:10364000991F1A9469F760957095809590959B01E4
:10365000AC01BD01CF010895EE0FFF1F0590F4915D
:10366000E02D0994CF93DF938230910510F482E02E
:1036700090E0E091CE05F091CF0520E030E0C0E091
:10368000D0E0309711F14081518148175907C0F0BF
:103690004817590761F482819381209719F09B8321
:1036A0008A832BC09093CF058093CE0526C0211529
:1036B000310519F04217530718F49A01BE01DF01D2
:1036C000EF010280F381E02DDCCF2115310509F1F6
:1036D000281B390B2430310590F412968D919C9162
:1036E00013976115710521F0FB019383828304C058
:1036F0009093CF058093CE05FD01329644C0FD0125
:10370000E20FF31F81939193225031092D933C9343
:103710003AC02091CC053091CD05232B41F4209166
:103720001501309116013093CD052093CC052091E1
:103730001301309114012115310541F42DB73EB725
:103740004091170150911801241B350BE091CC05D5
:10375000F091CD05E217F307A0F42E1B3F0B2817BD
:10376000390778F0AC014E5F5F4F2417350748F0FA
:103770004E0F5F1F5093CD054093CC0581939193DD
:1037800002C0E0E0F0E0CF01DF91CF9108950F9308
:103790001F93CF93DF93009709F48CC0FC013297FD
:1037A000138212820091CE051091CF0501151105EB
:1037B00081F420813181820F931F2091CC053091BB
:1037C000CD052817390779F5F093CD05E093CC05A1
:1037D00071C0D80140E050E0AE17BF0750F4129618
:1037E0002D913C911397AD012115310509F1D901B6
:1037F000F3CF9D01DA013383228360817181860FCB
:10380000971F8217930769F4EC0128813981260FED
:10381000371F2E5F3F4F318320838A819B819383A3
:103820008283452B29F4F093CF05E093CE0542C067
:103830001396FC93EE931297ED01499159919E01D5
:10384000240F351FE217F30771F480819181840FF3
:10385000951F029611969C938E9382819381139665
:103860009C938E931297E0E0F0E0D80112968D9130
:103870009C911397009719F0F8018C01F6CF8D9168
:103880009C9198012E5F3F4F820F931F2091CC0592
:103890003091CD052817390769F4309729F4109233
:1038A000CF051092CE0502C0138212821093CD056F
:1038B0000093CC05DF91CF911F910F910895A0E067
:1038C000B0E0E5E6FCE10C94B819EC01009721F4B6
:1038D000CB010E94321BB8C0FC01E60FF71F9C0110
:1038E00022503109E217F30708F4ACC0D9010D9159
:1038F0001C91119706171707B0F00530110508F451
:103900009FC0C80104978617970708F499C0025012
:103910001109061B170B019311936D937C93CF0133
:103920000E94C71B8DC05B01A01AB10A4C01800E1A
:10393000911EA091CE05B091CF0540E050E0E12C62
:10394000F12C109709F44AC0A815B905D1F56D906E
:103950007C901197630182E0C80ED11CCA14DB046D
:1039600080F1A3014A195B096A0182E0C80ED11CEB
:103970001296BC9012971396AC91B5E0CB16D10479
:1039800040F0B282A38351834083D9016D937C932D
:103990000AC00E5F1F4FC301800F911FF901918371
:1039A0008083EB2DFA2FE114F10431F0D701139647
:1039B000FC93EE93129744C0F093CF05E093CE05AD
:1039C0003FC08D919C9111974817590708F4AC019D
:1039D0007D0112960D90BC91A02DB3CF8091CC05A6
:1039E0009091CD0588159905E1F446175707C8F45D
:1039F0008091130190911401009741F48DB79EB707
:103A00004091170150911801841B950BE817F90795
:103A1000C8F4F093CD05E093CC05F9017183608380
:103A20000FC0CB010E94321B7C01009759F0A80106
:103A3000BE010E942E1DCE010E94C71BC70104C0FB
:103A4000CE0102C080E090E0CDB7DEB7EEE00C948E
:103A5000D41981E090E0F8940C943E1DFB01DC0148
:103A600002C001900D9241505040D8F70895FB01DB
:103A7000DC0101900D920020E1F7089510E0C3EF02
:103A8000D0E004C0FE010E942C1B2196C43FD10748
:063A9000C9F7F894FFCF16
:103A960000E1000000000000FFFFFFFF00C1808181
:103AA6000000000000D00580004A756C20313320EC
:103AB600323031392030303A34383A34330000006D
:103AC6000000C2012F015A0109028B0169017D0123
:103AD60000000000350296054B027C022E06DB052F
:103AE600FD050000000057028A0254027F02454588
:103AF60050524F4D2055706461746520004F464604
:103B0600200070697463683A20004F4E20002076CA
:103B1600656C4F6C643A002076656C4E65773A00AA
:103B26007375737461696E203A20007375737461DE
:103B3600696E4F6E3A00454550524F4D2E72656183
:103B4600642000537973457820456E640053797379
:103B5600457820002E002F55736572732F6F6261B2
:103B66006C626F75732F446F63756D656E74732F1A
:103B7600706572736F6E6E656C2F706B2F676974EC
:103B86002F61726475696E6F2F5231335F4D4153E9
:103B96005445525F50524F4D4943524F2F52313385
:103BA6005F4D41535445525F50524F4D4943524F1A
:103BB6002E696E6F005265616479005265636569AE
:0C3BC6007665643A20002D000D0A000016
:00000001FF
