:100000000C94F4000C941C010C941C010C941C0125
:100010000C941C010C941C010C941C010C941C01EC
:100020000C941C010C941C010C942F0A0C94090BC9
:100030000C941C010C941C010C941C010C941C01CC
:100040000C941C010C941C010C941C010C941C01BC
:100050000C941C010C941C010C941C010C94B80F02
:100060000C941C010C9489060C9463060C941C01DE
:100070000C941C010C941C010C941C010C941C018C
:100080000C941C010C941C010C941C010C941C017C
:100090000C941C010C941C010C941C010C941C016C
:1000A0000C941C010C941C010C941C01C9153E16E7
:1000B0000816F015AF13AF13C315AF13C315AF1365
:1000C000C315C315C315AF13C315C315C80ECB0E87
:1000D000BA0EBE0EC40EEC0EEC0EEC0ECF0ED30E0E
:1000E000D70EDD0EE10EEC0EE70E0000000023003F
:1000F000260029002C002F00080B0002020201003C
:10010000090400000102020000052400100105247A
:1001100001010104240206052406000107058103EC
:1001200010004009040100020A0000000705020255
:100130004000000705830240000004030904120187
:100140000002EF020140D80429ED00010102030181
:1001500052796D65204D75736963005069616E6FEA
:1001600020646520566F79616765000000000024F7
:100170000027002A002D0030000000000025002884
:10018000002B002E003100040404040403040502C3
:100190000202020403020202020606060606060422
:1001A00004020202040404080201104080401020EE
:1001B000408040800802040180402010020110802D
:1001C00010204040200000000200090F000003043E
:1001D00001000C0000000000000000000000000012
:1001E000000000005C17021011241FBECFEFDAE000
:1001F000DEBFCDBF25E0ACE3B2E001C01D92A23D61
:10020000B207E1F712E0A0E0B1E0E4E3FBE302C0F3
:1002100005900D92AC33B107D9F710E0C3EFD0E0F1
:1002200004C02197FE010E947B1BC23FD107C9F782
:100230000E9408100C948D1D0C9400002FB7F894A8
:1002400087708093E9009091E800892F807295FF74
:1002500004C09091F20080E4891B2FBF0895CF92D3
:10026000DF92EF92FF920F931F93CF93DF936C0176
:100270007A018B01C0E0D0E0CE15DF0589F0D8010E
:100280006D918D01D601ED91FC910190F081E02DF1
:10029000C6010995892B11F47E0102C02196ECCF8D
:1002A000C701DF91CF911F910F91FF90EF90DF90E9
:1002B000CF900895FC01538D448D252F30E0842F7D
:1002C00090E0821B930B541710F0CF96089501977E
:1002D0000895FC01918D828D981761F0828DDF0168
:1002E000A80FB11D5D968C91928D9F5F9F73928F29
:1002F00090E008958FEF9FEF0895FC01918D828D1E
:10030000981731F0828DE80FF11D858D90E00895EA
:100310008FEF9FEF0895FC01918D228D892F90E042
:10032000805C9F4F821B91098F73992708958BE6FC
:1003300094E00E948B0121E0892B09F420E0822FB8
:100340000895FC01848DDF01A80FB11DA35ABF4F92
:100350002C91848D90E001968F739927848FA689C4
:10036000B7892C93A089B1898C9180648C93938DEB
:10037000848D981306C00288F389E02D80818F7DDB
:1003800080830895EF92FF920F931F93CF93DF9393
:10039000EC0181E0888F9B8D8C8D981305C0E889D6
:1003A000F989808185FD24C0F62E0B8D10E00F5F4A
:1003B0001F4F0F731127E02E8C8DE8120CC00FB663
:1003C00007FCFACFE889F989808185FFF5CFCE0156
:1003D0000E94A101F1CF8B8DFE01E80FF11DE35AC0
:1003E000FF4FF0820B8FEA89FB898081806207C012
:1003F000EE89FF896083E889F98980818064808340
:1004000081E090E0DF91CF911F910F91FF90EF90ED
:100410000895CF93DF93EC01888D8823C9F0EA8992
:10042000FB89808185FD05C0A889B9898C9186FDED
:100430000FC00FB607FCF5CF808185FFF2CFA889EA
:10044000B9898C9185FFEDCFCE010E94A101E7CF44
:10045000DF91CF91089580E090E0892B29F00E94F0
:10046000970181110C9400000895CF93DF931F92A0
:10047000CDB7DEB76983DC01ED91FC910280F38199
:10048000E02D41E050E0BE016F5F7F4F09950F9076
:10049000DF91CF91089583E00E941E0190E00895BE
:1004A000089580E090E0089580E090E0089580E075
:1004B0000895FC0182818F5BFB01808381E00895B8
:1004C00083E00C94250A8DE499E4A4E4B9E4FB01EB
:1004D00080839183A283B38384E00895CF92DF92D7
:1004E000EF92FF920F931F93CF93DF93CDB7DEB7B9
:1004F000C456D1090FB6F894DEBF0FBECDBF6C0154
:10050000DB019C919E5F9C93FE01319684E6DF01A6
:100510001D928A95E9F788E089838BE08A8322E03F
:100520002C8391E09D839E8339E0398774E07A873C
:100530009E879F873A8B44E24B8B9C8B00E011E0B7
:100540001E8B0D8B89E0E82EF12CF88EEF8A998FA7
:100550003B8F7C8F2F8F98A353E059A387E08CA308
:100560004DA39EA318A70FA301E410E01AA709A7A3
:1005700086E08BA74CA72DA79EA79FA789AB4AAB68
:100580002BAB2CAB2DAB3FAB48AF59AF9AAF5BAFAA
:100590009CAF2DAF9EAF21963FAF219722964FAFD4
:1005A000229723965FAF239724962FAF2497259603
:1005B0007FAF259726969FAF269727969FAF2797C1
:1005C00028969FAF28972A963FAF2A9745E02B960B
:1005D0004FAF2B972D962FAF2D9760E470E02F969D
:1005E0007FAF6EAF2F9763964FAF639785E26496A8
:1005F0008FAF649765969FAF659766969FAF669736
:1006000067969FAF679768963FAF689769964FAFB9
:1006100069976B962FAF6B976D967FAF6EAF6D97A7
:10062000A1964FAFA197A2968FAFA297A3969FAF27
:10063000A397A4969FAFA497A5965FAFA597D60161
:1006400012969C9112979B839B879F5F9A8F9D8F99
:1006500013968C912C968FAF2C978F5F80686A963B
:100660008FAF6A9744E650E0BF0180E00E94B00A75
:10067000CC59DF4F0FB6F894DEBF0FBECDBFDF9170
:10068000CF911F910F91FF90EF90DF90CF90089541
:100690001F93CF93DF93C82F162F8FE591E00E9411
:1006A000350E6C2F70E080E090E04AE00E94CD0DA6
:1006B00089E791E00E94350E612F70E080E090E0C4
:1006C0004AE00E94CD0D0E94710DD0E0CE010E9443
:1006D000ED19811731F0612FCE010E94F51981E0EB
:1006E00001C080E0DF91CF911F9108952F923F923A
:1006F0004F925F926F927F928F929F92AF92BF9232
:10070000CF92DF92EF92FF920F931F93CF93DF93DD
:10071000CDB7DEB72C970FB6F894DEBF0FBECDBFB6
:100720008C87262E4F83862F6CE00E944D1B892FCD
:100730008D7F813021F0963011F0883089F42F813F
:10074000622F70E080E090E00E94D01826E636E646
:1007500046E65FE30E942F190E94191B362E01C046
:100760003F800CE312E0832C912CA12CB12CD801FA
:1007700014964D905D906D907C90179718968D9182
:100780009D910D90BC91A02D88879987AA87BB87E2
:10079000C501B4010E94D0186B017C019B01AC0122
:1007A000F80160817181828193810E94481B87FDDD
:1007B00010C0A7019601C301B2010E942F1928851C
:1007C00039854A855B850E943B1A0E94191B362E8B
:1007D00006C0045F1F4FF2E0043B1F0741F6809103
:1007E000C6028823E1F16BE372E0CE0101960E941C
:1007F000EA09CE0101960E94900D89819A810E949A
:10080000161C1A8219821C821B821E821D8263ECB6
:1008100075E0CE0101960E94C0096EE671E0CE013E
:1008200001960E948C09622D0E943E0962E771E0E8
:100830000E948C096F810E943E096BE771E00E9463
:100840008C09632D0E943E09BC0183EC95E00E9457
:10085000C00989819A810E94161C0E94750D8091A1
:10086000C602882341F07C85706969E0C1010E945D
:10087000560D0E94510D2C960FB6F894DEBF0FBE98
:10088000CDBFDF91CF911F910F91FF90EF90DF903F
:10089000CF90BF90AF909F908F907F906F905F9020
:1008A0004F903F902F9008950F931F93CF93DF9316
:1008B000CDB7DEB727970FB6F894DEBF0FBECDBF1A
:1008C000182F062F8091C6028823A1F16BE372E0F6
:1008D000CE0101964F830E94EA09CE0101960E9443
:1008E000900D89819A810E94161C1A8219821C829D
:1008F0001B821E821D8263EC75E0CE0101960E9470
:10090000C00964E871E0CE0101960E948C0969E893
:1009100071E00E948C09602F0E943E09BC0183ECAB
:1009200095E00E94C00989819A810E94161C0E944C
:10093000750D4F818091C602882349F0712F706830
:1009400068E0802F942F0E94560D0E94510D27962B
:100950000FB6F894DEBF0FBECDBFDF91CF911F91D0
:100960000F91089563307105E0F0FC012181243579
:10097000C1F44091ED025091EE026091EF0270914E
:10098000F0024093E9025093EA026093EB02709305
:10099000EC0282818F5F8093C70260E087E00C9455
:1009A000ED0E08954091070450910804209105042C
:1009B0003091060442175307B4F49091E800957003
:1009C000E1F39091E80092FD19C08093F1008091CD
:1009D00007049091080401968F739927892B19F4C5
:1009E0008EEF8093E80080910704909108040196AF
:1009F000909308048093070481E0089580E00895AF
:100A00007F928F929F92AF92BF92CF92DF92EF929E
:100A1000FF920F931F93CF93DF93C82E8B017A0120
:100A20008091C502811103C08FEF9FEF75C0809147
:100A3000C30280FF05C08091E00082608093E000E7
:100A4000CE2DDF2DD12C8AEF882E8C2D8770B82EDD
:100A50008C2D8072A82E8C2D8074982E9AE3792E7E
:100A6000209709F452C08C2D0E941E01282F81115D
:100A70000AC08A948820C1F261E070E080E090E0D2
:100A80000E947E0FEDCF90E0C817D9070CF42C2FF1
:100A90003FB7F894B092E9008091E80085FF33C039
:100AA000822F90E0C81BD90BAA2029F02150A8F072
:100AB0001092F100FBCFF801C7FE07C0215058F09B
:100AC00044914093F1003196F9CF215020F04191AB
:100AD0004093F100FACF080F191FDD2019F0709232
:100AE000E8000AC08091E80085FD08C07092E80027
:100AF000DD24D394209739F0D12C05C0209719F428
:100B000091107092E8003FBFABCFD110ACCF5D9891
:100B100084E680930A04C701DF91CF911F910F9162
:100B2000FF90EF90DF90CF90BF90AF909F908F900D
:100B30007F900895CF93DF93EC0180910701882384
:100B400031F083E00E9400051816190634F081E0A8
:100B500090E09B838A8380E090E0DF91CF910895BD
:100B60009091C502992311F057FF03C08FEF9FEFBB
:100B700008952FB7F89487708093E9008091F20070
:100B800090E0841795070CF4AC01842FFB0194E6E8
:100B9000815038F02898909309043091F1003193F6
:100BA000F7CF4115510521F08091F200882319F00B
:100BB0002FBFCA0108958BE68093E800F9CF0F9309
:100BC0001F93CF93DF931F92CDB7DEB78C01FC014B
:100BD0008485958597FF12C041E050E0BE016F5FAC
:100BE0007F4F82E00E94B005019719F4298130E01F
:100BF00002C02FEF3FEFF80135872487F801848585
:100C000095850F90DF91CF911F910F910895CF930C
:100C1000DF931F92CDB7DEB7FC018485958597FDE4
:100C200005C02FEF3FEF358724870FC041E050E02C
:100C3000BE016F5F7F4F82E00E94B005019719F4FB
:100C4000898190E002C08FEF9FEF0F90DF91CF91ED
:100C500008959FB7F89487708093E9008091F2001F
:100C60009FBF0895FC018485958597FD06C082E0AD
:100C70000E94290690E00196089582E00E942906CC
:100C800090E00895615030F02091F100FC01208344
:100C90000196F8CF289884E68093090408958091FE
:100CA000BA0281110DC082E08093B60284E0809385
:100CB000B7021092B9021092B80281E08093BA0292
:100CC00086EB92E008951F920F920FB60F921124B7
:100CD0002F933F934F935F936F937F938F939F9344
:100CE000AF93BF93EF93FF938BE694E00E94A10133
:100CF000FF91EF91BF91AF919F918F917F916F91F4
:100D00005F914F913F912F910F900FBE0F901F90C9
:100D100018951F920F920FB60F9211242F938F9355
:100D20009F93EF93FF93E0917B04F0917C0480818B
:100D3000E0918104F091820482FD12C09081809143
:100D400084048F5F8F7320918504821751F0E091A6
:100D50008404F0E0E559FB4F958F8093840401C033
:100D60008081FF91EF919F918F912F910F900FBEF6
:100D70000F901F9018956D3F71053CF46A3F710507
:100D800054F4683F710589F406C09B012E5F310958
:100D90002230310550F4DC018D919C91DC01ED9104
:100DA000FC910190F081E02D0994089587FF0DC01A
:100DB0009CE0980F923048F0982F9B7F993F29F044
:100DC000803F08F4807F90E0089580E090E00895EF
:100DD0009C018F7C8038910561F0203D310549F000
:100DE00081E0203E310539F0203C310521F080E0E2
:100DF000089581E008950895CF93C82F8091C60289
:100E0000882379F081E991E00E94350E8C2F90E0E3
:100E1000A0E0B0E04AE0BC01CD010E94CD0D0E94EF
:100E2000710D8091C602882379F0CC2319F090913E
:100E3000B50202C09091B4026BE070EB80E40E94B6
:100E4000560DCF910C94510DCF9108952F923F9252
:100E50004F925F926F927F928F929F92AF92BF92CA
:100E6000CF92DF92EF92FF920F931F93CF93DF9376
:100E700000D000D0CDB7DEB703961C010CE312E022
:100E8000F1013397608170E080E090E00E94CE181D
:100E90002B013C01F1013297608170E080E090E02D
:100EA0000E94CE186B017C01F1013197608170E0E6
:100EB00080E090E00E94CE184B015C01F10160815E
:100EC00070E080E090E00E94CE18A70196010E9499
:100ED0003A1A69837A838B839C83A3019201C501AB
:100EE000B4010E943A1A9B01AC0169817A818B811D
:100EF0009C810E94A71AF80180829182A282B3820B
:100F00006483758386839783A30192010E942F19BE
:100F10009B01AC01C701B6010E943A1AF801608733
:100F2000718782879387F2E02F0E311C045F1F4F79
:100F300082E0043B180709F0A3CF0F900F900F90A9
:100F40000F90DF91CF911F910F91FF90EF90DF9065
:100F5000CF90BF90AF909F908F907F906F905F9059
:100F60004F903F902F90089580FF06C08FE78093A9
:100F7000B5021092B40205C01092B5028FE78093BB
:100F8000B4028091B50290E084569E4F0C94370EC7
:100F90009F92AF92BF92CF92DF92EF92FF920F9308
:100FA0001F93CF93DF93CDB7DEB764970FB6F89456
:100FB000DEBF0FBECDBF8091C902803209F0ADC047
:100FC0000091CD028091CC028231B1F51091CE0218
:100FD000002331F0013009F0A0C000E010E008C0AB
:100FE000612F80E00E944803812F0E94B40795C0C2
:100FF000C80188539D4F6C01FC01E6806E2D81E095
:10100000800F0E944803F601F7806F2D82E0800F69
:101010000E944803E1E0F0E0EC0FFD1FE00FF11F3C
:10102000E082F1820E5F1F4F0431110509F7CE01F6
:1010300001960E94260771C0813109F06EC087EACF
:1010400091E00E94350E802F90E0A0E0B0E04AE0F1
:10105000BC01CD010E94CD0D0E94710D64E070EFC6
:1010600080E290E10E94560D0E94510D64E072E40E
:1010700082E1902F0E94560D0E94510D013009F41B
:1010800062C008F45EC00E3709F047C06FE07DE62D
:1010900080E090E00E94560D0E94510D6FE071E3D8
:1010A00080E090E00E94560D0E94510D6FE073E3C6
:1010B00080E090E00E94560D0E94510D6FE070E3B9
:1010C00080E090E00E94560D0E94510D67E071E3B0
:1010D00080E097EF0E94560D0E94510D1EC0C8017E
:1010E0000E94ED19A82E0C151D05B9F597E0992E53
:1010F00027EFB22E84EB91E00E94350E0E94710D15
:10110000692D7A2D80E09B2D0E94560D0E94510D75
:101110000F5F1F4F0E151F0514F31092E80264961F
:101120000FB6F894DEBF0FBECDBFDF91CF911F91F8
:101130000F91FF90EF90DF90CF90BF90AF909F9076
:10114000089581E001C084E110E07801E80EF11C0F
:101150006701F1E0CF1AD108DDCF8FE0982EB12CD6
:101160008EEB91E00E94350E8A2D90E0A0E0B0E079
:101170004AE0BC01CD010E94CD0DC0CFDC01ED9154
:10118000FC910190F081E02D099408950E94781D52
:101190000F931F93CF93DF93EC0188819981009780
:1011A00029F02A813B812617370788F48B016F5F6E
:1011B0007F4F0E94AE1C009761F0998388831B8348
:1011C0000A832C813D81232B11F4FC01108281E0E4
:1011D00001C080E0DF91CF911F910F910895CF93CF
:1011E000DF93EC0188819981009711F00E94161C11
:1011F000198218821D821C821B821A82DF91CF9174
:101200000895CF92DF92EF92FF920F931F93CF93A7
:10121000DF931F92CDB7DEB7182F062FE42E862F4F
:10122000880F8E5F99830E94D20483E00E94D204CB
:10123000F12EC12E9981D92E8C2D8F19801798F4FB
:10124000F601E7FE02C0849101C080810E94D204B1
:10125000182F80E00E94D2048123FFEFCF1ADF0A0B
:101260008111EACF01C081E00F90DF91CF911F91F2
:101270000F91FF90EF90DF90CF900895CF92DF9283
:10128000EF92FF920F931F93CF93DF9300D000D084
:10129000CDB7DEB78C01862F4AE09E012F5F3F4F0E
:1012A0006901B90190E00E949918F60101900020AF
:1012B000E9F73197EC19FD09D8011496ED90FC90EF
:1012C00015973097D9F0EE0EFF1EB701C8010E94A6
:1012D000C808882381F0F8012081318184819581BB
:1012E000B601820F931F0E94861DD8011596FC92AD
:1012F000EE92149703C0C8010E94EF08C8010F9036
:101300000F900F900F90DF91CF911F910F91FF9051
:10131000EF90DF90CF900895EF92FF920F931F937D
:10132000CF93DF93EC017B0161157105F1F0FB01B7
:1013300001900020E9F73197E61BF70B0C811D8126
:101340003097B1F00E0F1F1FB8010E94C808882304
:1013500061F0288139818C819D81B701820F931FB3
:101360000E94861D1D830C8303C0CE010E94EF08DE
:10137000CE01DF91CF911F910F91FF90EF900895D3
:10138000EF92FF920F931F93CF93DF93EC01FB013A
:1013900086179707B9F0008111810115110539F001
:1013A000E480F580B7010E94C808811104C0CE0115
:1013B0000E94EF0807C0FD82EC82B8018881998104
:1013C0000E94861DCE01DF91CF911F910F91FF905A
:1013D000EF900895EF92FF920F931F93CF93DF93B7
:1013E000EC01198218821B821A821D821C826115EF
:1013F000710521F18B01FB0101900020E9F7319784
:101400007F01E61AF70AB7010E94C808811109C0D6
:10141000CE01DF91CF911F910F91FF90EF900C942F
:10142000EF08FD82EC82B80188819981DF91CF912C
:101430001F910F91FF90EF900C94861DDF91CF913B
:101440001F910F91FF90EF9008958093E900809194
:10145000F200882319F08AE38093E80008951F9230
:101460000F920FB60F9211242F933F934F935F93D8
:101470006F937F938F939F93AF93BF93CF93EF938C
:10148000FF93C091E1008091E100837F8093E100B0
:10149000C3FF0FC01092E90081E08093EB0010922F
:1014A000EC0082E38093ED001092C50288E0809307
:1014B000F000C2FF19C083E00E94250A80910A044F
:1014C000882339F080910A04815080930A0488238C
:1014D00089F180910904882339F0809109048150B1
:1014E00080930904882341F1C4FF10C08091E20079
:1014F0008E7E81608093E2008091E1008F7E8093F8
:10150000E1008091C3028E7E806111C0C0FF16C0D1
:101510008091E2008E7E80618093E2008091E10004
:101520008E7E8093E1008091C3028E7E81608093E5
:10153000C30204C05D9ACDCF289AD6CFFF91EF9118
:10154000CF91BF91AF919F918F917F916F915F915B
:101550004F913F912F910F900FBE0F901F901895B4
:10156000DF92EF92FF920F931F93CF93DF93D82ECA
:101570008A017B01E40EF51EEB01CE15DF0571F04B
:10158000D7FE03C0FE01849101C088810E94D2046D
:1015900021968111F2CF8FEF9FEF01C0C801DF913B
:1015A000CF911F910F91FF90EF90DF9008950F93CF
:1015B0001F93CF93DF931F92CDB7DEB782E089836D
:1015C00042E450E068EF70E080E80E94B00A0E94B8
:1015D0004F06DC0112960D911C9113970115110510
:1015E00069F0D801ED91FC910280F381E02DBE01FC
:1015F0006F5F7F4FC801099597FF07C089810F90E2
:10160000DF91CF911F910F910895F8010085118509
:10161000E5CF1F920F920FB60F921124CF92DF9257
:10162000EF92FF920F931F932F933F934F935F93EC
:101630006F937F938F939F93AF93BF93EF93FF939A
:10164000CF93DF93CDB7DEB76C97DEBFCDBF1092DF
:10165000E9008091E80083FFEDC168E0CE01459686
:101660000E94420682EF8093E8008D8987FF05C0C3
:101670009091E80090FFFCCF03C09EEF9093E800AC
:10168000982F907609F0C6C09E892F89188D9111E8
:101690000CC0803829F48091C4028093F10002C00C
:1016A0001092F1001092F10048C1422F50E0512BEE
:1016B000913051F4811141C14130510509F03DC1D2
:1016C0008091C4028D7F0BC0933061F4811135C1CC
:1016D0004130510509F031C18091C402826080938C
:1016E000C4022BC1953041F48091E80080FFFCCF0B
:1016F00020682093E30021C1963009F05FC0EB8C95
:10170000FC8C1092E9001092080410920704123029
:1017100091F510920604109205040E94D70A99E0F0
:10172000BE016F5F7F4FDB01E92F1D92EA95E9F75C
:1017300099831A8391E09E8390EA988792E3998730
:101740002091070430910804275F3F4F3C832B838F
:101750008D831092E9001092080410920704F09211
:101760000604E092050449E050E080E00E94B00ADF
:101770000E94D70AE2C0F0920604E09205040E949B
:101780004F06DC011296ED90FC901397E114F104E2
:1017900009F4C0C0D701ED91FC910480F581E02DE2
:1017A000BE016B5E7F4FC7010995009719F00CF0E1
:1017B000C4C0C7C0F701E084F184E8CF973009F4D2
:1017C000C0C0983021F481E08093F100B6C0993018
:1017D00009F0B3C0837009F0B4C0EEE0F1E081E03D
:1017E00021E036E39081992361F08093E900209312
:1017F000EB0091919093EC003093ED008F5F873078
:1018000089F78EE78093EA001092EA008F8980932F
:10181000C50293C08B8D9C8D1092E9001092080434
:10182000109207049093060480930504898D81111A
:1018300056C08E899D89913A59F4813209F081C050
:1018400047E050E060E071E080E00E94B00A75C0BF
:10185000913209F076C0833289F4888D90E0982F18
:1018600088272F89822BA0E0B0E080930901909314
:101870000A01A0930B01B0930C015FC0803269F4A0
:101880008091E80082FFFCCF67E080E091E00E9459
:1018900042068BEF8093E80006C0823209F04DC00B
:1018A0008F89809307018091C202882319F0EEEF9F
:1018B000FAE002C0E0E0F8E08091000190910101BF
:1018C000A0910201B0910301803B9440A105B105B4
:1018D00009F07BC08091070180FF93C076C00E9411
:1018E0004F06DC0112960D911C91139701151105FD
:1018F00041F1D801ED91FC910190F081E02DBE0104
:101900006B5E7F4FC8010995811117C0F8010085F2
:101910001185ECCF113009F44EC0133091F48F894A
:10192000882309F445C0823081F440E86FE08BE5FC
:1019300091E00E940109882321F08EEF8093E80056
:1019400079C081E28093EB0075C0813029F440E8D2
:101950006AE080E591E0EDCF833099F70E944F0671
:10196000DC011296ED90FC9013978E010F5F1F4FD4
:101970006801E114F10479F0D701ED91FC91068042
:10198000F781E02DB801C7010995080F111DF70176
:10199000E084F184EECFD8011C92F6010190002082
:1019A000E9F73197BF016C197D0940E0C601C1CF4D
:1019B0006AE371E002C06EE371E06115710509F23E
:1019C000FB01449150E080E840CF0FB6F894A89511
:1019D00080916000886180936000109260000FBE6B
:1019E000A895EE3F2AE0F20739F08091FE0A909127
:1019F000FF0A91838083A1CF1092FF0A1092FE0A02
:101A00009CCFEE3F8AE0F80731F08081918190937E
:101A1000FF0A8093FE0A87E797E7918380839BE024
:101A200088E10FB6F894A895809360000FBE90935C
:101A3000600083CF6C960FB6F894DEBF0FBECDBFAB
:101A4000DF91CF91FF91EF91BF91AF919F918F91D6
:101A50007F916F915F914F913F912F911F910F91C6
:101A6000FF90EF90DF90CF900F900FBE0F901F90E0
:101A70001895BC01009791F0FC0101900020E9F756
:101A80003197AF01481B590BE0910F04F0911004FE
:101A90000280F381E02D8FE094E0099480E090E0F3
:101AA0000895809162048F5F0C94250ACF93DF9391
:101AB00000D000D0CDB7DEB769837A838B839C8357
:101AC0008091620444E050E0BE016F5F7F4F8F5F02
:101AD0000E9400050F900F900F900F90DF91CF9113
:101AE000089589E392E00C94390DCF93DF93A09190
:101AF0000F04B0911004E3ECF5E04481558160815E
:101B000071811296ED91FC9113978FE094E0099505
:101B1000EC010E94710D8C0F9D1FDF91CF910895F4
:101B2000CF93DF93EC018091C3059091C40500979A
:101B3000C9F0688179816115710591F04091C50501
:101B40005091C6052C813D814217530748F00E94F1
:101B5000861D8C819D819093C8058093C70518C010
:101B60000E94161C888199819093C4058093C305B7
:101B70008A819B819093C6058093C5058C819D8148
:101B80009093C8058093C705198218821B821A8218
:101B90001D821C82DF91CF9108958F929F92AF9208
:101BA000BF920F931F93CF93DF93CDB7DEB7A1976B
:101BB0000FB6F894DEBF0FBECDBF19A2423008F4B5
:101BC0004AE08E010F5D1F4F842E912CA12CB12C69
:101BD000A50194010E94591BE62FB901CA010150C9
:101BE0001109EA3014F4E05D01C0E95CD801EC931E
:101BF000232B242B252B61F7C8010E94390DA196B8
:101C00000FB6F894DEBF0FBECDBFDF91CF911F910D
:101C10000F91BF90AF909F908F900895CF92DF92D9
:101C2000EF92FF92CF93DF936B017C01E0910F0461
:101C3000F09110040190F081E02D6DE28FE094E0CE
:101C40000995EC0166277727CB016C197D098E0970
:101C50009F094AE00E94CD0D8C0F9D1FDF91CF910F
:101C6000FF90EF90DF90CF9008950C94390DCF93B3
:101C7000DF930E94390DEC010E94710D8C0F9D1FA6
:101C8000DF91CF910895EF92FF921F93CF93DF934F
:101C90001F92CDB7DEB77C01162F2150203108F0FE
:101CA0004EC080E8E816F1040CF449C0A1EEEA1633
:101CB000F104ACF580912C0590912D05DC01ED919E
:101CC000FC916E2D622B0190F081E02D49830995E6
:101CD00080912C0590912D05DC01ED91FC91612FF7
:101CE0006F770190F081E02D0995E894E4F849813F
:101CF000B0ECEB16F10419F180912C0590912D05B3
:101D0000DC01ED91FC91642F6F770190F081E02D63
:101D10000F90DF91CF911F91FF90EF900994C70131
:101D2000885F9109089758F4B7018CE295E00F900D
:101D3000DF91CF911F91FF90EF900C94BB060F9015
:101D4000DF91CF911F91FF90EF900895BC01990F03
:101D5000880B990B97FD0C940E0E4AE00C94CD0D58
:101D600090E0FC013197EF30F105B0F5EA59FF4FF3
:101D70000C947B1B809180008F7703C08091800042
:101D80008F7D80938000089580918000877FF9CFB8
:101D900084B58F7702C084B58F7D84BD089580910E
:101DA00090008F7707C0809190008F7D03C0809155
:101DB0009000877F8093900008958091C0008F7776
:101DC00003C08091C0008F7D8093C00008958091F2
:101DD000C200877F8093C20008951F93CF93DF9343
:101DE000282F30E0F901EB53FE4F8491F901EA55B9
:101DF000FE4FD491F901E957FE4FC491CC23C9F0AD
:101E0000162F81110E94B00EEC2FF0E0EE0FFF1F95
:101E1000E758FE4FA591B4918FB7F894111105C002
:101E20009C91ED2FE095E92302C0EC91ED2BEC9312
:101E30008FBFDF91CF911F910895CF93DF9390E0F3
:101E4000FC01EA55FE4F2491FC01E957FE4F8491B5
:101E5000882361F190E0880F991FFC01E559FE4F3E
:101E6000C591D491FC01E758FE4FA591B491611141
:101E700009C09FB7F8948881209582238883EC91CC
:101E80002E230BC0623061F49FB7F8943881822F03
:101E9000809583238883EC912E2B2C939FBF06C0C3
:101EA0008FB7F894E8812E2B28838FBFDF91CF91D5
:101EB00008953FB7F8948091CA059091CB05A09101
:101EC000CC05B091CD0526B5A89B05C02F3F19F0D4
:101ED0000196A11DB11D3FBFBA2FA92F982F8827AA
:101EE000820F911DA11DB11DBC01CD0142E0660F05
:101EF000771F881F991F4A95D1F708958F929F9257
:101F0000AF92BF92CF92DF92EF92FF926B017C0172
:101F10000E94590F4B015C01C114D104E104F1048A
:101F2000F1F00E94590FDC01CB0188199909AA0927
:101F3000BB09883E9340A105B10570F321E0C21AA8
:101F4000D108E108F10888EE880E83E0981EA11CF4
:101F5000B11CC114D104E104F10419F7DDCFFF90E5
:101F6000EF90DF90CF90BF90AF909F908F900895AB
:101F70001F920F920FB60F9211242F933F938F93BE
:101F80009F93AF93BF9380910B0490910C04A09109
:101F90000D04B0910E043091C90523E0230F2D37B5
:101FA00020F40196A11DB11D05C026E8230F02965D
:101FB000A11DB11D2093C90580930B0490930C04BF
:101FC000A0930D04B0930E048091CA059091CB05A7
:101FD000A091CC05B091CD050196A11DB11D8093B6
:101FE000CA059093CB05A093CC05B093CD05BF91C6
:101FF000AF919F918F913F912F910F900FBE0F90B6
:102000001F9018958091C3059091C4050C94161CDF
:10201000CF93DF93CDB7DEB764970FB6F894DEBFEA
:102020000FBECDBF789484B5826084BD84B58160D5
:1020300084BD85B5826085BD85B5816085BD809193
:102040006E00816080936E0010928100809181000B
:102050008260809381008091810081608093810003
:1020600080918000816080938000809191008260E7
:102070008093910080919100816080939100809184
:1020800090008160809390008091C1008460809373
:10209000C1008091C10082608093C1008091C10025
:1020A00081608093C1008091C30081608093C300F0
:1020B0008091C00082608093C0008091C2008160E6
:1020C0008093C20080917A00846080937A0080912E
:1020D0007A00826080937A0080917A008160809398
:1020E0007A0080917A00806880937A001092C5020D
:1020F0001092C4021092C3028091D7008160809335
:10210000D70080EA8093D80089B5806189BD89B500
:10211000826089BD09B400FEFDCF61E070E080E01F
:1021200090E00E947E0F8091D8008F7C8061809328
:10213000D8008091E000807F8093E0008091E100F2
:102140008E7E8093E1008DE08093E200559A209A84
:10215000EEEFFFE7859194918B3F9C4D19F481E060
:102160008093C2021092C70262E085E10E941D0FB7
:1021700061E082E10E941D0F61E087E00E941D0F77
:1021800062E080E00E941D0F60E087E00E94ED0E9B
:1021900061E082E10E94ED0EE12CF12C01E0109152
:1021A00007016AE070E080E090E00E947E0F11116C
:1021B00031C084E1E816F10469F18FB7F89480909A
:1021C0000B0490900C04A0900D04B0900E048FBFEF
:1021D0008092ED029092EE02A092EF02B092F00295
:1021E000D501C40184199509A609B7098536910559
:1021F000A105B105A0F23FEFE31AF30A109108011F
:10220000612F87E00E94ED0E102710930801240132
:102210003501C5CF61E082E10E94ED0E109107010A
:102220006AE070E080E090E00E947E0F1123D9F117
:1022300081E08093C6028FEF9FEF90931C04809300
:102240001B04E0910F04F09110040190F081E02D47
:102250006DE48FE094E0099581E090E00E94A60E85
:1022600085EC91E00E94350E83E090E00E94A60E7E
:1022700085EC91E00E94350E80E090E00E94A60E71
:1022800085EC91E00E94350E81E090E00E94A60E60
:102290000E94710D87EC91E00E94370E8AE191E077
:1022A0000E94370E03C081E08093C60286E793E068
:1022B00090930B0580930A0584E594E090930905BB
:1022C0008093080582EB94E09093170580931605A0
:1022D000E0912C05F0912D05A089B18982E08C93C5
:1022E000A485B5851C92A685B7858FE38C93108E47
:1022F000A489B58986E08C93A289B3898C91806189
:102300008C93A289B3898C9188608C93A289B389BC
:102310008C9180688C930288F389E02D80818F7D79
:10232000808310922E051092300510922F05109286
:1023300037051092360510923505109234058FEF4F
:102340009FEF909339058093380590933B058093D8
:102350003A051092C20510923F0510923E05109268
:102360003D05109240051092410510923C0580E019
:102370000E94B407DE0111967D0101E010E05D01CD
:10238000C8010E94ED19D82EC80101960E94ED19CE
:10239000F701D082F501E00FF11F80830E5F1F4F20
:1023A000F2E0EF0EF11C0531110551F7C5010E9455
:1023B000260786E292E00E94370EB0E88B2E912C21
:1023C000FF24F39417EFE12E03E0202E312C0E941E
:1023D000590F6093ED027093EE028093EF02909399
:1023E000F00210912E05113108F0B9C180912C0531
:1023F00090912D05DC01ED91FC910084F185E02D9B
:102400000995892B09F4ABC180912C0590912D057C
:10241000DC01ED91FC910284F385E02D09956C01BE
:102420008B7F893F09F49BC1209136053091370598
:102430002115310509F0AFC0C092310500912F057B
:10244000802F0E94D6060E94E806882361F0C7FC10
:102450000AC000933105C0923205E1E0F0E0F0934C
:102460003705E093360500913105802F0E94D6068E
:10247000813F910509F45EC074F5803B910509F434
:1024800060C06CF48039910509F45BC0803A910515
:1024900009F457C08038910509F0D8C052C0803D7A
:1024A000910509F447C02CF4803C910509F442C021
:1024B000CDC0803E910509F444C0803F910509F0EC
:1024C000C5C0909235058092340510922F0530EFEB
:1024D000309342053AC0883F9105B9F044F4833FF8
:1024E000910541F174F1863F910579F0AFC08A3FC3
:1024F00091050CF4ABC08D3F91053CF09C012E5F23
:1025000031092230310508F0A1C090933F05809336
:102510003E0510923D051092400510924105F09243
:10252000C2051092370510923605109235051092AB
:102530003405F0C022E030E03093350520933405B7
:1025400004C0309235052092340520913605309133
:1025500037054091340550913505415051092417F4
:10256000350708F4D0C090933F0580933E05802F37
:102570008F708F5F80933D05809132058093400579
:1025800010924105109237051092360510923505CC
:102590001092340521C0C7FE43C0C60199278D3F64
:1025A000910554F48A3F91056CF4873F9105B9F089
:1025B000883F9105A9F506C0AC014E5F5109423034
:1025C000510570F590933F0580933E0510924005AC
:1025D0001092410510923D05F092C2059BC080917A
:1025E0004205803F99F5C9010196F901E85FFA4F6C
:1025F000E2AEA0EFB0E0B0933F05A0933E0580931C
:1026000040059093410510923D05F092C20510924D
:10261000370510923605109235051092340570C0BA
:1026200080913105F901E85FFA4F803FD1F4C2AEE5
:10263000C0903405D0903505C60101972817390799
:1026400008F461C000913105003F69F4109237052C
:1026500010923605109235051092340510922F0510
:102660007EC0C1A6E5CF802F0E94D6063C01909384
:102670003F0580933E050E94E806882331F0802FB5
:102680008F708F5F80933D0502C010923D05809151
:10269000320580934005B3E0CB16D10419F4809144
:1026A000330501C080E080934105109237051092F8
:1026B00036051092350510923405F092C205E0EB14
:1026C0006E167104D1F06CF420E962167104A9F061
:1026D00030EA6316710489F080E86816710481F4A9
:1026E0000CC090ED6916710441F0A0EE6A167104F9
:1026F00021F0B0EC6B16710419F400932F050AC099
:1027000010922F0507C02F5F3F4F3093370520935E
:10271000360525C080913E0590913F058039910591
:1027200029F480914105882309F4CCC280913E05AB
:1027300090913F059C01205831092136310508F060
:10274000C6C220913D05211709F4C1C2112309F425
:10275000BEC240913C05342F317040FDDAC18091FA
:10276000ED029091EE02A091EF02B091F002409143
:102770000104509102046091030470910404841BCD
:10278000950BA60BB70B893E9340A105B10508F444
:1027900062C0EAEDF1E08491EBEBF1E01491ECE939
:1027A000F1E00491002379F081110E94B00EE02F36
:1027B000F0E0EE0FFF1FE651FF4FA591B4918C9111
:1027C000182381E009F480E081708093F2029091F7
:1027D000F102891749F08093F102811102C081E072
:1027E00001C080E00E94FC068091ED029091EE0213
:1027F000A091EF02B091F002809301049093020443
:10280000A0930304B09304048091E9029091EA023A
:10281000A091EB02B091EC02892B8A2B8B2BD9F47F
:102820008091FF0390910004853FF1E09F0774F0D1
:10283000109200041092FF0310910801612F87E0AD
:102840000E94ED0E1F251093080105C0019690937C
:1028500000048093FF038091F3039091F403A0910F
:10286000F503B091F6034091F7035091F80360919E
:10287000F9037091FA03841B950BA60BB70B8F73AA
:102880009927AA27BB27892B8A2B8B2B09F05FC09E
:10289000809162040E942906882309F46CC080910B
:1028A000F3039091F403A091F503B091F603019620
:1028B000A11DB11D2C013D012FE3422255246624A8
:1028C00077248091F7039091F803A091F903B091D8
:1028D000FA03481659066A067B06C9F1809162041C
:1028E0000E94290644E050E0B501809162040E94F4
:1028F000B005049764F18091F3039091F403A091E3
:10290000F503B091F603880F991F880F991FFC01FA
:10291000ED50FD4F49815A816B817C814083518309
:10292000628373834092F3035092F4036092F50341
:102930007092F603D301C2010196A11DB11D2C01B5
:102940003D013FE34322552466247724BACF80918A
:10295000F7039091F803A091F903B091FA03880F5F
:10296000991F880F991FFC01ED50FD4F8081318127
:102970002281938104C090E020E030E080E040902C
:10298000F3035090F4036090F5037090F6034091C8
:10299000F7035091F8036091F9037091FA0344161C
:1029A000550666067706C1F04091F7035091F8038B
:1029B0006091F9037091FA034F5F5F4F6F4F7F4F44
:1029C0004F735527662777274093F7035093F803F3
:1029D0006093F9037093FA038093FB033093FC0335
:1029E0002093FD039093FE03882309F48FC08CE2AB
:1029F00092E00E94350E6091FB0370E080E090E071
:102A000040E10E94CD0D87E392E00E94350E609177
:102A1000FC0370E080E090E040E10E94CD0D87E390
:102A200092E00E94350E6091FD0370E080E090E03E
:102A300040E10E94CD0D87E392E00E94350E609147
:102A4000FE0370E080E090E040E10E94CD0D0E9426
:102A5000710D8091FB038F70853009F455C000F52E
:102A6000843009F053C0E091E802AE2FB0E0A853E3
:102A7000BD4F8091FC038C93A1E0AE0FB0E0A85352
:102A8000BD4F8091FD038C9383E08E0F8093E8020D
:102A9000EE5FF0E0E853FD4F8091FE03808336C087
:102AA0008630F1F0873091F5E091E802AE2FB0E08A
:102AB000A853BD4F8091FC038C93A1E0AE0FB0E012
:102AC000A853BD4F8091FD038C9383E08E0F8093BC
:102AD000E802EE5FF0E0E853FD4F8091FE0313C083
:102AE000E091E802AE2FB0E0A853BD4F8091FC0307
:102AF0008C9382E08E0F8093E802EF5FF0E0E85362
:102B0000FD4F8091FD0380830E94C8070E942B0225
:102B10005ECC842F8E7F09F422CE80913E05909169
:102B20003F05BC01605871096136710508F52091B7
:102B30003D05211719F031E0111130E0469550E0C4
:102B40004230510541F04330510549F041305105C3
:102B500009F005CE06C0332309F401CE02C03111BD
:102B6000FECD40914105609140050E94430EF7CD96
:102B7000FC01E05FF109E031F10508F0F0CDEA5A1F
:102B8000FF4F0C947B1BBC018CE295E00E94BB06BE
:102B9000E6CD0091410510E0102F002780914005FF
:102BA000082B0138110510F000E810E0C12CD12CE1
:102BB000C016D10609F4D3CD80912C0590912D0536
:102BC000DC01ED91FC91D601A85FBA4F0190F08134
:102BD000E02DDA966C910995BFEFCB1ADB0AE8CFAE
:102BE0001091400580912C0590912D05DC01ED910F
:102BF000FC910190F081E02D63EF09951F77612F23
:102C000070E080912C0590912D050E94BE08A7CD03
:102C100000914105B0E80B9F80011124809140058F
:102C2000082B80912C0590912D05DC01ED91FC91F4
:102C30000190F081E02D62EF099580912C05909133
:102C40002D05DC01ED91FC91B8016F77772701909C
:102C5000F081E02D099580912C0590912D05DC01E6
:102C6000ED91FC91B801660F672F661F770B719588
:102C70006F7777270190F081E02D22C08091400589
:102C80008770B0E18B9FC0011124109141051F7026
:102C9000182B80912C0590912D05DC01ED91FC9174
:102CA0000190F081E02D61EF099580912C059091C4
:102CB0002D05DC01ED91FC910190F081E02D612F5B
:102CC00009954DCD90923F0580923E052FCD813FD5
:102CD0009105C1F4E0911805F09119050CC08B3FE6
:102CE00091050CF0C8C0833F910509F0A5C0E091A3
:102CF0001C05F0911D05309709F42BCD80914005FE
:102D0000099527CD823F91050CF080C0803B91054D
:102D1000C1F4E0910E05F0910F0508C080389105CF
:102D200009F017CDE0910805F0910905309709F4F5
:102D300010CD409141056091400580913D05099578
:102D400008CD813B910584F48039910529F4E09107
:102D50000A05F0910B05EACF803A9105F9F6E0916A
:102D60000C05F0910D05E2CF803D910529F4E0912D
:102D70001205F09113050BC0813D91058CF4803C48
:102D8000910509F0E6CCE0911005F091110530971E
:102D900009F4DFCC6091400580913D050995D9CCBF
:102DA000803E9105B9F4E0911405F0911505309736
:102DB00009F4CFCC609141056F7720E8629FB001A4
:102DC0001124809140058F77682B705280913D05CA
:102DD0000995BFCC803F910509F0BBCCE091160569
:102DE000F0911705309709F4B4CC6091410570E07B
:102DF000762F662780914005682B6138710510F0A9
:102E000060E870E082E495E00995A3CC8A3F9105E3
:102E100009F065CFE0912205F091230508C0883FB5
:102E2000910509F096CCE0912005F09121053097AD
:102E300009F48FCC09958DCC833F9105A4F4E091E2
:102E40001A05F0911B05309709F483CC8091410558
:102E50008F7730E8839FC0011124209140052F77A0
:102E6000822B099576CC863F9105C9F6E0911E0527
:102E7000F0911F05DCCF8C3F910529F4E0912605E8
:102E8000F0912705D4CF8C3F91052CF4E0912405D7
:102E9000F0912505CCCF8E3F910529F4E0912805CE
:102EA000F0912905C4CF8F3F910509F052CCE091F4
:102EB0002A05F0912B05BBCF10926E0410926D0481
:102EC00088EE93E0A0E0B0E080936F0490937004EC
:102ED000A0937104B093720423E331E030936C0447
:102EE00020936B042DEC30E030937804209377042A
:102EF0002CEC30E030937A042093790428EC30E015
:102F000030937C0420937B0429EC30E030937E04E2
:102F100020937D042AEC30E03093800420937F04DA
:102F20002EEC30E0309382042093810410928404CC
:102F30001092850410928604109287041092120455
:102F4000109211048093130490931404A093150419
:102F5000B093160485E491E09093100480930F04DD
:102F60008FEF9FEF90931C0480931B0482E080936B
:102F700063048093640489E694E0909366048093EC
:102F80006504109268041092670487E591E09093BD
:102F9000600480935F0480E88093690481E88093F3
:102FA0006A040E944F06FC0121818091630490E035
:102FB000820F911D08970CF483C06BE372E083ECE1
:102FC00095E00E94EA098BE694E090932D058093AA
:102FD0002C0510922E0510922F051092300510929C
:102FE00035051092340510923705109236058FEF93
:102FF0009FEF909339058093380590933B0580931C
:103000003A0583E080933C0510923D0510923F0500
:1030100010923E0510924005109241051092C20593
:1030200080E8E2E4F5E0DF011D928A95E9F710926D
:1030300009051092080510920B0510920A051092CE
:103040000D0510920C0510920F0510920E051092AE
:10305000110510921005109213051092120510928E
:10306000150510921405109217051092160510926E
:1030700019051092180510921B0510921A0510924E
:103080001D0510921C0510921F0510921E0510922E
:10309000210510922005109223051092220510920E
:1030A00025051092240510922705109226051092EE
:1030B00029051092280510922B0510922A050895D3
:1030C000A281B381109729F48FE594E093838283E2
:1030D0000EC018968D919C911997009711F0DC0104
:1030E000F8CF8FE594E019969C938E931897808182
:1030F0008093610481818093620490818091640453
:10310000890F808380E090916304891708F055CF80
:10311000A0916504B0916604A80FB11D9C91A18196
:10312000B0E0A35FBE4F9C9391819F5F91838F5FBF
:10313000EACFBB274A3031F4992322F4BDE29095BF
:1031400081959F4F0C94A518BB27FB015527AA27F3
:10315000880F991FAA1FA41710F0A41B8395505124
:10316000B9F7A05DAA3308F0A95DA193009779F79C
:10317000B111B1931192CB010C94BE18DC01FC018A
:10318000672F71917723E1F7329704C07C916D939B
:1031900070836291AE17BF07C8F30895E89409C021
:1031A00097FB3EF490958095709561957F4F8F4F7A
:1031B0009F4F9923A9F0F92F96E9BB279395F69590
:1031C000879577956795B795F111F8CFFAF4BB0F0E
:1031D00011F460FF1BC06F5F7F4F8F4F9F4F16C072
:1031E000882311F096E911C0772321F09EE8872FFC
:1031F000762F05C0662371F096E8862F70E060E0B8
:103200002AF09A95660F771F881FDAF7880F969530
:10321000879597F90895990F0008550FAA0BE0E8D4
:10322000FEEF16161706E807F907C0F01216130688
:10323000E407F50798F0621B730B840B950B39F4C8
:103240000A2661F0232B242B252B21F408950A262E
:1032500009F4A140A6958FEF811D811D08950E945C
:1032600042190C94B3190E94A51938F00E94AC19A8
:1032700020F0952311F00C949C190C94A2191124A0
:103280000C94E7190E94C41970F3959FC1F3950F30
:1032900050E0551F629FF001729FBB27F00DB11DDA
:1032A000639FAA27F00DB11DAA1F649F6627B00D6A
:1032B000A11D661F829F2227B00DA11D621F739F53
:1032C000B00DA11D621F839FA00D611D221F749F61
:1032D0003327A00D611D231F849F600D211D822FA8
:1032E000762F6A2F11249F5750409AF0F1F08823CF
:1032F0004AF0EE0FFF1FBB1F661F771F881F9150FC
:103300005040A9F79E3F510580F00C949C190C94F5
:10331000E7195F3FE4F3983ED4F386957795679578
:10332000B795F795E7959F5FC1F7FE2B880F911D25
:103330009695879597F9089597F99F6780E870E0CB
:1033400060E008959FEF80EC089500240A9416161B
:10335000170618060906089500240A941216130683
:10336000140605060895092E0394000C11F4882311
:1033700052F0BB0F40F4BF2B11F460FF04C06F5F2D
:103380007F4F8F4F9F4F089557FD9058440F551F03
:1033900059F05F3F71F04795880F97FB991F61F0D7
:1033A0009F3F79F087950895121613061406551F4E
:1033B000F2CF4695F1DF08C0161617061806991FBA
:1033C000F1CF86957105610508940895E894BB27AF
:1033D00066277727CB0197F90895F999FECF92BD1B
:1033E00081BDF89A992780B50895262FF999FECFC7
:1033F0001FBA92BD81BD20BD0FB6F894FA9AF99A12
:103400000FBE019608952F923F924F925F926F9256
:103410007F928F929F92AF92BF92CF92DF92EF9264
:10342000FF920F931F93CF93DF93CDB7DEB7CA1BE5
:10343000DB0B0FB6F894DEBF0FBECDBF09942A8810
:10344000398848885F846E847D848C849B84AA84B8
:10345000B984C884DF80EE80FD800C811B81AA8145
:10346000B981CE0FD11D0FB6F894DEBF0FBECDBF10
:10347000ED0108955058BB27AA270E94521A0C94B8
:10348000B3190E94A51938F00E94AC1920F039F444
:103490009F3F19F426F40C94A2190EF4E095E7FB73
:1034A0000C949C19E92F0E94C41958F3BA176207AB
:1034B00073078407950720F079F4A6F50C94E619B4
:1034C0000EF4E0950B2EBA2FA02D0B01B90190013F
:1034D0000C01CA01A0011124FF27591B99F0593F83
:1034E00050F4503E68F11A16F040A22F232F342FCB
:1034F0004427585FF3CF469537952795A795F04019
:103500005395C9F77EF41F16BA0B620B730B840B2D
:10351000BAF09150A1F0FF0FBB1F661F771F881FE5
:10352000C2F70EC0BA0F621F731F841F48F487953D
:1035300077956795B795F7959E3F08F0B0CF93952F
:10354000880F08F09927EE0F9795879508950E94A8
:10355000BB1A0C94B3190E94AC1958F00E94A5191B
:1035600040F029F45F3F29F00C949C1951110C9400
:10357000E7190C94A2190E94C41968F39923B1F3B6
:10358000552391F3951B550BBB27AA276217730789
:10359000840738F09F5F5F4F220F331F441FAA1F1D
:1035A000A9F335D00E2E3AF0E0E832D091505040D9
:1035B000E695001CCAF72BD0FE2F29D0660F771F87
:1035C000881FBB1F261737074807AB07B0E809F06D
:1035D000BB0B802DBF01FF2793585F4F3AF09E3FF2
:1035E000510578F00C949C190C94E7195F3FE4F3B3
:1035F000983ED4F3869577956795B795F7959F5F35
:10360000C9F7880F911D9695879597F90895E1E080
:10361000660F771F881FBB1F621773078407BA07DF
:1036200020F0621B730B840BBA0BEE1F88F7E0953A
:1036300008950E94CC1988F09F5798F0B92F9927C8
:10364000B751B0F0E1F0660F771F881F991F1AF08D
:10365000BA95C9F714C0B13091F00E94E619B1E0F3
:1036600008950C94E619672F782F8827B85F39F0F2
:10367000B93FCCF3869577956795B395D9F73EF426
:1036800090958095709561957F4F8F4F9F4F0895CE
:103690000E940B1908F48FEF0895991B79E004C07C
:1036A000991F961708F0961B881F7A95C9F7809581
:1036B0000895A1E21A2EAA1BBB1BFD010DC0AA1F73
:1036C000BB1FEE1FFF1FA217B307E407F50720F08B
:1036D000A21BB30BE40BF50B661F771F881F991F06
:1036E0001A9469F760957095809590959B01AC014F
:1036F000BD01CF010895EE0FFF1F0590F491E02D5D
:103700000994CF93DF938230910510F482E090E02A
:10371000E091D005F091D10520E030E0C0E0D0E0AC
:10372000309711F14081518148175907C0F048176F
:10373000590761F482819381209719F09B838A83D2
:103740002BC09093D1058093D00526C0211531055B
:1037500019F04217530718F49A01BE01DF01EF0177
:103760000280F381E02DDCCF2115310509F1281B02
:10377000390B2430310590F412968D919C9113975A
:103780006115710521F0FB019383828304C090933E
:10379000D1058093D005FD01329644C0FD01E20FB2
:1037A000F31F81939193225031092D933C933AC09A
:1037B0002091CE053091CF05232B41F420911601A5
:1037C000309117013093CF052093CE05209114013D
:1037D000309115012115310541F42DB73EB74091C7
:1037E000180150911901241B350BE091CE05F09181
:1037F000CF05E217F307A0F42E1B3F0B281739075C
:1038000078F0AC014E5F5F4F2417350748F04E0F3C
:103810005F1F5093CF054093CE058193919302C0D3
:10382000E0E0F0E0CF01DF91CF9108950F931F9377
:10383000CF93DF93009709F48CC0FC013297138279
:1038400012820091D0051091D1050115110581F466
:1038500020813181820F931F2091CE053091CF05B9
:103860002817390779F5F093CF05E093CE0571C09D
:10387000D80140E050E0AE17BF0750F412962D91EA
:103880003C911397AD012115310509F1D901F3CF11
:103890009D01DA013383228360817181860F971F36
:1038A0008217930769F4EC0128813981260F371FAD
:1038B0002E5F3F4F318320838A819B819383828354
:1038C000452B29F4F093D105E093D00542C013961F
:1038D000FC93EE931297ED01499159919E01240FAB
:1038E000351FE217F30771F480819181840F951FD2
:1038F000029611969C938E938281938113969C934A
:103900008E931297E0E0F0E0D80112968D919C9191
:103910001397009719F0F8018C01F6CF8D919C91C7
:1039200098012E5F3F4F820F931F2091CE0530915B
:10393000CF052817390769F4309729F41092D1057B
:103940001092D00502C0138212821093CF0500930B
:10395000CE05DF91CF911F910F910895A0E0B0E0C7
:10396000E4EBFCE10C94071AEC01009721F4CB0185
:103970000E94811BB8C0FC01E60FF71F9C0122507A
:103980003109E217F30708F4ACC0D9010D911C917D
:10399000119706171707B0F00530110508F49FC0FE
:1039A000C80104978617970708F499C002501109B7
:1039B000061B170B019311936D937C93CF010E940B
:1039C000161C8DC05B01A01AB10A4C01800E911E1D
:1039D000A091D005B091D10540E050E0E12CF12C50
:1039E000109709F44AC0A815B905D1F56D907C90DF
:1039F0001197630182E0C80ED11CCA14DB0480F168
:103A0000A3014A195B096A0182E0C80ED11C129613
:103A1000BC9012971396AC91B5E0CB16D10440F050
:103A2000B282A38351834083D9016D937C930AC0F2
:103A30000E5F1F4FC301800F911FF9019183808397
:103A4000EB2DFA2FE114F10431F0D7011396FC931A
:103A5000EE93129744C0F093D105E093D0053FC098
:103A60008D919C9111974817590708F4AC017D017D
:103A700012960D90BC91A02DB3CF8091CE05909160
:103A8000CF0588159905E1F446175707C8F48091CA
:103A9000140190911501009741F48DB79EB74091A4
:103AA000180150911901841B950BE817F907C8F408
:103AB000F093CF05E093CE05F901718360830FC0C9
:103AC000CB010E94811B7C01009759F0A801BE0127
:103AD0000E947D1DCE010E94161CC70104C0CE01AC
:103AE00002C080E090E0CDB7DEB7EEE00C94231A80
:103AF00081E090E0F8940C948D1DFB01DC0102C084
:103B000001900D9241505040D8F70895FB01DC011F
:103B100001900D920020E1F7089510E0C3EFD0E08E
:103B200004C0FE010E947B1B2196C43FD107C9F748
:043B3000F894FFCF37
:103B340000E100000000000001FFFFFFFF00C18062
:103B4400810000000000D20580004A756C203134E9
:103B540020323031392032333A35323A34310000B0
:103B6400000000C2012F015A0109028B0169017D85
:103B7400010000000035029A054B0260023206077C
:103B840006DF050000000057026E0254026302457E
:103B94004550524F4D2055706461746520004F4E5E
:103BA40020002076656C4F6C643A002076656C4E7C
:103BB40065773A004F4646200070697463683A207E
:103BC400007375737461696E203A200073757374A1
:103BD40061696E4F6E3A00454550524F4D2E7265E5
:103BE40061642000537973457820456E64005379ED
:103BF40073457820002E002F55736572732F6F6202
:103C0400616C626F75732F446F63756D656E747349
:103C14002F706572736F6E6E656C2F706B2F676992
:103C2400742F61726475696E6F2F5231335F4D4129
:103C3400535445525F50524F4D4943524F2F5231C6
:103C4400335F4D41535445525F50524F4D49435297
:103C54004F2E696E6F005265616479005265636529
:0C3C6400697665643A20002D000D0A000E
:00000001FF
